{
  "_format": "hh-sol-artifact-1",
  "contractName": "PersonIdentify",
  "sourceName": "contracts/PersonIdentify.sol",
  "abi": [
    {
      "inputs": [
        {
          "internalType": "string",
          "name": "username",
          "type": "string"
        },
        {
          "components": [
            {
              "internalType": "string",
              "name": "firstName",
              "type": "string"
            },
            {
              "internalType": "string",
              "name": "lastName",
              "type": "string"
            },
            {
              "internalType": "string",
              "name": "email",
              "type": "string"
            },
            {
              "internalType": "string",
              "name": "homeAddress",
              "type": "string"
            },
            {
              "internalType": "string",
              "name": "dateOfBirth",
              "type": "string"
            },
            {
              "internalType": "string",
              "name": "phoneNumber",
              "type": "string"
            }
          ],
          "internalType": "struct PersonIdentify.BasicInfo",
          "name": "basicInfo",
          "type": "tuple"
        },
        {
          "components": [
            {
              "internalType": "string",
              "name": "education",
              "type": "string"
            },
            {
              "internalType": "string",
              "name": "workHistory",
              "type": "string"
            },
            {
              "internalType": "string",
              "name": "jobTitle",
              "type": "string"
            },
            {
              "internalType": "string",
              "name": "info",
              "type": "string"
            },
            {
              "internalType": "string[]",
              "name": "skills",
              "type": "string[]"
            },
            {
              "internalType": "string",
              "name": "imageURL",
              "type": "string"
            }
          ],
          "internalType": "struct PersonIdentify.ProfessionalInfo",
          "name": "professionalInfo",
          "type": "tuple"
        },
        {
          "components": [
            {
              "internalType": "string",
              "name": "x",
              "type": "string"
            },
            {
              "internalType": "string",
              "name": "instagram",
              "type": "string"
            },
            {
              "internalType": "string",
              "name": "tiktok",
              "type": "string"
            },
            {
              "internalType": "string",
              "name": "youtube",
              "type": "string"
            },
            {
              "internalType": "string",
              "name": "linkedin",
              "type": "string"
            }
          ],
          "internalType": "struct PersonIdentify.SocialLinks",
          "name": "socialLinks",
          "type": "tuple"
        },
        {
          "components": [
            {
              "internalType": "bool",
              "name": "education",
              "type": "bool"
            },
            {
              "internalType": "bool",
              "name": "workHistory",
              "type": "bool"
            },
            {
              "internalType": "bool",
              "name": "phoneNumber",
              "type": "bool"
            },
            {
              "internalType": "bool",
              "name": "homeAddress",
              "type": "bool"
            },
            {
              "internalType": "bool",
              "name": "dateOfBirth",
              "type": "bool"
            }
          ],
          "internalType": "struct PersonIdentify.Visibility",
          "name": "visibility",
          "type": "tuple"
        }
      ],
      "name": "createUser",
      "outputs": [],
      "stateMutability": "nonpayable",
      "type": "function"
    },
    {
      "inputs": [
        {
          "internalType": "string",
          "name": "username",
          "type": "string"
        },
        {
          "components": [
            {
              "internalType": "string",
              "name": "firstName",
              "type": "string"
            },
            {
              "internalType": "string",
              "name": "lastName",
              "type": "string"
            },
            {
              "internalType": "string",
              "name": "email",
              "type": "string"
            },
            {
              "internalType": "string",
              "name": "homeAddress",
              "type": "string"
            },
            {
              "internalType": "string",
              "name": "dateOfBirth",
              "type": "string"
            },
            {
              "internalType": "string",
              "name": "phoneNumber",
              "type": "string"
            }
          ],
          "internalType": "struct PersonIdentify.BasicInfo",
          "name": "basicInfo",
          "type": "tuple"
        },
        {
          "components": [
            {
              "internalType": "string",
              "name": "education",
              "type": "string"
            },
            {
              "internalType": "string",
              "name": "workHistory",
              "type": "string"
            },
            {
              "internalType": "string",
              "name": "jobTitle",
              "type": "string"
            },
            {
              "internalType": "string",
              "name": "info",
              "type": "string"
            },
            {
              "internalType": "string[]",
              "name": "skills",
              "type": "string[]"
            },
            {
              "internalType": "string",
              "name": "imageURL",
              "type": "string"
            }
          ],
          "internalType": "struct PersonIdentify.ProfessionalInfo",
          "name": "professionalInfo",
          "type": "tuple"
        },
        {
          "components": [
            {
              "internalType": "string",
              "name": "x",
              "type": "string"
            },
            {
              "internalType": "string",
              "name": "instagram",
              "type": "string"
            },
            {
              "internalType": "string",
              "name": "tiktok",
              "type": "string"
            },
            {
              "internalType": "string",
              "name": "youtube",
              "type": "string"
            },
            {
              "internalType": "string",
              "name": "linkedin",
              "type": "string"
            }
          ],
          "internalType": "struct PersonIdentify.SocialLinks",
          "name": "socialLinks",
          "type": "tuple"
        },
        {
          "components": [
            {
              "internalType": "bool",
              "name": "education",
              "type": "bool"
            },
            {
              "internalType": "bool",
              "name": "workHistory",
              "type": "bool"
            },
            {
              "internalType": "bool",
              "name": "phoneNumber",
              "type": "bool"
            },
            {
              "internalType": "bool",
              "name": "homeAddress",
              "type": "bool"
            },
            {
              "internalType": "bool",
              "name": "dateOfBirth",
              "type": "bool"
            }
          ],
          "internalType": "struct PersonIdentify.Visibility",
          "name": "visibility",
          "type": "tuple"
        }
      ],
      "name": "editUser",
      "outputs": [],
      "stateMutability": "nonpayable",
      "type": "function"
    },
    {
      "inputs": [
        {
          "internalType": "address",
          "name": "userAddress",
          "type": "address"
        }
      ],
      "name": "getUserByAddress",
      "outputs": [
        {
          "components": [
            {
              "internalType": "string",
              "name": "firstName",
              "type": "string"
            },
            {
              "internalType": "string",
              "name": "lastName",
              "type": "string"
            },
            {
              "internalType": "string",
              "name": "email",
              "type": "string"
            },
            {
              "internalType": "string",
              "name": "homeAddress",
              "type": "string"
            },
            {
              "internalType": "string",
              "name": "dateOfBirth",
              "type": "string"
            },
            {
              "internalType": "string",
              "name": "phoneNumber",
              "type": "string"
            }
          ],
          "internalType": "struct PersonIdentify.BasicInfo",
          "name": "basicInfo",
          "type": "tuple"
        },
        {
          "components": [
            {
              "internalType": "string",
              "name": "education",
              "type": "string"
            },
            {
              "internalType": "string",
              "name": "workHistory",
              "type": "string"
            },
            {
              "internalType": "string",
              "name": "jobTitle",
              "type": "string"
            },
            {
              "internalType": "string",
              "name": "info",
              "type": "string"
            },
            {
              "internalType": "string[]",
              "name": "skills",
              "type": "string[]"
            },
            {
              "internalType": "string",
              "name": "imageURL",
              "type": "string"
            }
          ],
          "internalType": "struct PersonIdentify.ProfessionalInfo",
          "name": "professionalInfo",
          "type": "tuple"
        },
        {
          "components": [
            {
              "internalType": "string",
              "name": "x",
              "type": "string"
            },
            {
              "internalType": "string",
              "name": "instagram",
              "type": "string"
            },
            {
              "internalType": "string",
              "name": "tiktok",
              "type": "string"
            },
            {
              "internalType": "string",
              "name": "youtube",
              "type": "string"
            },
            {
              "internalType": "string",
              "name": "linkedin",
              "type": "string"
            }
          ],
          "internalType": "struct PersonIdentify.SocialLinks",
          "name": "socialLinks",
          "type": "tuple"
        },
        {
          "components": [
            {
              "internalType": "bool",
              "name": "education",
              "type": "bool"
            },
            {
              "internalType": "bool",
              "name": "workHistory",
              "type": "bool"
            },
            {
              "internalType": "bool",
              "name": "phoneNumber",
              "type": "bool"
            },
            {
              "internalType": "bool",
              "name": "homeAddress",
              "type": "bool"
            },
            {
              "internalType": "bool",
              "name": "dateOfBirth",
              "type": "bool"
            }
          ],
          "internalType": "struct PersonIdentify.Visibility",
          "name": "visibility",
          "type": "tuple"
        }
      ],
      "stateMutability": "view",
      "type": "function"
    },
    {
      "inputs": [
        {
          "internalType": "string",
          "name": "username",
          "type": "string"
        }
      ],
      "name": "getUserByUsername",
      "outputs": [
        {
          "components": [
            {
              "internalType": "string",
              "name": "firstName",
              "type": "string"
            },
            {
              "internalType": "string",
              "name": "lastName",
              "type": "string"
            },
            {
              "internalType": "string",
              "name": "email",
              "type": "string"
            },
            {
              "internalType": "string",
              "name": "homeAddress",
              "type": "string"
            },
            {
              "internalType": "string",
              "name": "dateOfBirth",
              "type": "string"
            },
            {
              "internalType": "string",
              "name": "phoneNumber",
              "type": "string"
            }
          ],
          "internalType": "struct PersonIdentify.BasicInfo",
          "name": "basicInfo",
          "type": "tuple"
        },
        {
          "components": [
            {
              "internalType": "string",
              "name": "education",
              "type": "string"
            },
            {
              "internalType": "string",
              "name": "workHistory",
              "type": "string"
            },
            {
              "internalType": "string",
              "name": "jobTitle",
              "type": "string"
            },
            {
              "internalType": "string",
              "name": "info",
              "type": "string"
            },
            {
              "internalType": "string[]",
              "name": "skills",
              "type": "string[]"
            },
            {
              "internalType": "string",
              "name": "imageURL",
              "type": "string"
            }
          ],
          "internalType": "struct PersonIdentify.ProfessionalInfo",
          "name": "professionalInfo",
          "type": "tuple"
        },
        {
          "components": [
            {
              "internalType": "string",
              "name": "x",
              "type": "string"
            },
            {
              "internalType": "string",
              "name": "instagram",
              "type": "string"
            },
            {
              "internalType": "string",
              "name": "tiktok",
              "type": "string"
            },
            {
              "internalType": "string",
              "name": "youtube",
              "type": "string"
            },
            {
              "internalType": "string",
              "name": "linkedin",
              "type": "string"
            }
          ],
          "internalType": "struct PersonIdentify.SocialLinks",
          "name": "socialLinks",
          "type": "tuple"
        },
        {
          "components": [
            {
              "internalType": "bool",
              "name": "education",
              "type": "bool"
            },
            {
              "internalType": "bool",
              "name": "workHistory",
              "type": "bool"
            },
            {
              "internalType": "bool",
              "name": "phoneNumber",
              "type": "bool"
            },
            {
              "internalType": "bool",
              "name": "homeAddress",
              "type": "bool"
            },
            {
              "internalType": "bool",
              "name": "dateOfBirth",
              "type": "bool"
            }
          ],
          "internalType": "struct PersonIdentify.Visibility",
          "name": "visibility",
          "type": "tuple"
        }
      ],
      "stateMutability": "view",
      "type": "function"
    },
    {
      "inputs": [
        {
          "internalType": "address",
          "name": "userAddress",
          "type": "address"
        }
      ],
      "name": "getUsernameByAddress",
      "outputs": [
        {
          "internalType": "string",
          "name": "",
          "type": "string"
        }
      ],
      "stateMutability": "view",
      "type": "function"
    },
    {
      "inputs": [
        {
          "internalType": "string",
          "name": "username",
          "type": "string"
        }
      ],
      "name": "getVisibility",
      "outputs": [
        {
          "components": [
            {
              "internalType": "bool",
              "name": "education",
              "type": "bool"
            },
            {
              "internalType": "bool",
              "name": "workHistory",
              "type": "bool"
            },
            {
              "internalType": "bool",
              "name": "phoneNumber",
              "type": "bool"
            },
            {
              "internalType": "bool",
              "name": "homeAddress",
              "type": "bool"
            },
            {
              "internalType": "bool",
              "name": "dateOfBirth",
              "type": "bool"
            }
          ],
          "internalType": "struct PersonIdentify.Visibility",
          "name": "",
          "type": "tuple"
        }
      ],
      "stateMutability": "view",
      "type": "function"
    },
    {
      "inputs": [
        {
          "internalType": "string",
          "name": "username",
          "type": "string"
        },
        {
          "internalType": "bool",
          "name": "education",
          "type": "bool"
        },
        {
          "internalType": "bool",
          "name": "workHistory",
          "type": "bool"
        },
        {
          "internalType": "bool",
          "name": "phoneNumber",
          "type": "bool"
        },
        {
          "internalType": "bool",
          "name": "homeAddress",
          "type": "bool"
        },
        {
          "internalType": "bool",
          "name": "dateOfBirth",
          "type": "bool"
        }
      ],
      "name": "setVisibility",
      "outputs": [],
      "stateMutability": "nonpayable",
      "type": "function"
    }
  ],
  "bytecode": "0x608060405234801561001057600080fd5b50612316806100206000396000f3fe608060405234801561001057600080fd5b506004361061007d5760003560e01c8063bb6228b01161005b578063bb6228b0146100e1578063d1577cac146100f6578063ed1a998d14610109578063f86a29c71461012957600080fd5b8063320ba8f71461008257806369c212f6146100ab5780639f42af63146100ce575b600080fd5b610095610090366004611890565b61013c565b6040516100a291906118cd565b60405180910390f35b6100be6100b9366004611916565b610252565b6040516100a29493929190611b0a565b6100be6100dc366004611890565b6103ea565b6100f46100ef366004611f35565b610fbf565b005b6100f46101043660046120d7565b6112a6565b61011c610117366004611916565b61139d565b6040516100a29190612166565b6100f4610137366004611f35565b611456565b6040805160a0810182526000808252602082018190529181018290526060810182905260808101919091526000826040516101779190612179565b9081526040519081900360200190206012015460ff166101d55760405162461bcd60e51b81526020600482015260146024820152732ab9b2b9103237b2b9903737ba1032bc34b9ba1760611b60448201526064015b60405180910390fd5b6000826040516101e59190612179565b90815260408051918290036020908101832060a0840183526014015460ff8082161515855261010082048116151592850192909252620100008104821615159284019290925263010000008204811615156060840152640100000000909104161515608082015292915050565b61028b6040518060c001604052806060815260200160608152602001606081526020016060815260200160608152602001606081525090565b6102c46040518060c001604052806060815260200160608152602001606081526020016060815260200160608152602001606081525090565b6102f66040518060a0016040528060608152602001606081526020016060815260200160608152602001606081525090565b6040805160a08101825260008082526020820181905291810182905260608101829052608081019190915273ffffffffffffffffffffffffffffffffffffffff85166000908152600160205260408120805461035190612195565b80601f016020809104026020016040519081016040528092919081815260200182805461037d90612195565b80156103ca5780601f1061039f576101008083540402835291602001916103ca565b820191906000526020600020905b8154815290600101906020018083116103ad57829003601f168201915b505050505090506103da816103ea565b9450945094509450509193509193565b6104236040518060c001604052806060815260200160608152602001606081526020016060815260200160608152602001606081525090565b61045c6040518060c001604052806060815260200160608152602001606081526020016060815260200160608152602001606081525090565b61048e6040518060a0016040528060608152602001606081526020016060815260200160608152602001606081525090565b6040805160a0810182526000808252602082018190529181018290526060810182905260808101919091526000856040516104c99190612179565b9081526040519081900360200190206012015460ff166105225760405162461bcd60e51b81526020600482015260146024820152732ab9b2b9103237b2b9903737ba1032bc34b9ba1760611b60448201526064016101cc565b600080866040516105339190612179565b908152602001604051809103902090506040518060c0016040528082600001805461055d90612195565b80601f016020809104026020016040519081016040528092919081815260200182805461058990612195565b80156105d65780601f106105ab576101008083540402835291602001916105d6565b820191906000526020600020905b8154815290600101906020018083116105b957829003601f168201915b505050505081526020018260010180546105ef90612195565b80601f016020809104026020016040519081016040528092919081815260200182805461061b90612195565b80156106685780601f1061063d57610100808354040283529160200191610668565b820191906000526020600020905b81548152906001019060200180831161064b57829003601f168201915b5050505050815260200182600301805461068190612195565b80601f01602080910402602001604051908101604052809291908181526020018280546106ad90612195565b80156106fa5780601f106106cf576101008083540402835291602001916106fa565b820191906000526020600020905b8154815290600101906020018083116106dd57829003601f168201915b5050505050815260200182600401805461071390612195565b80601f016020809104026020016040519081016040528092919081815260200182805461073f90612195565b801561078c5780601f106107615761010080835404028352916020019161078c565b820191906000526020600020905b81548152906001019060200180831161076f57829003601f168201915b505050505081526020018260050180546107a590612195565b80601f01602080910402602001604051908101604052809291908181526020018280546107d190612195565b801561081e5780601f106107f35761010080835404028352916020019161081e565b820191906000526020600020905b81548152906001019060200180831161080157829003601f168201915b5050505050815260200182600801805461083790612195565b80601f016020809104026020016040519081016040528092919081815260200182805461086390612195565b80156108b05780601f10610885576101008083540402835291602001916108b0565b820191906000526020600020905b81548152906001019060200180831161089357829003601f168201915b505050505081525094506040518060c001604052808260060180546108d490612195565b80601f016020809104026020016040519081016040528092919081815260200182805461090090612195565b801561094d5780601f106109225761010080835404028352916020019161094d565b820191906000526020600020905b81548152906001019060200180831161093057829003601f168201915b5050505050815260200182600701805461096690612195565b80601f016020809104026020016040519081016040528092919081815260200182805461099290612195565b80156109df5780601f106109b4576101008083540402835291602001916109df565b820191906000526020600020905b8154815290600101906020018083116109c257829003601f168201915b505050505081526020018260090180546109f890612195565b80601f0160208091040260200160405190810160405280929190818152602001828054610a2490612195565b8015610a715780601f10610a4657610100808354040283529160200191610a71565b820191906000526020600020905b815481529060010190602001808311610a5457829003601f168201915b5050505050815260200182600f018054610a8a90612195565b80601f0160208091040260200160405190810160405280929190818152602001828054610ab690612195565b8015610b035780601f10610ad857610100808354040283529160200191610b03565b820191906000526020600020905b815481529060010190602001808311610ae657829003601f168201915b5050505050815260200182601001805480602002602001604051908101604052809291908181526020016000905b82821015610bdd578382906000526020600020018054610b5090612195565b80601f0160208091040260200160405190810160405280929190818152602001828054610b7c90612195565b8015610bc95780601f10610b9e57610100808354040283529160200191610bc9565b820191906000526020600020905b815481529060010190602001808311610bac57829003601f168201915b505050505081526020019060010190610b31565b505050508152602001826011018054610bf590612195565b80601f0160208091040260200160405190810160405280929190818152602001828054610c2190612195565b8015610c6e5780601f10610c4357610100808354040283529160200191610c6e565b820191906000526020600020905b815481529060010190602001808311610c5157829003601f168201915b505050505081525093506040518060a0016040528082600a018054610c9290612195565b80601f0160208091040260200160405190810160405280929190818152602001828054610cbe90612195565b8015610d0b5780601f10610ce057610100808354040283529160200191610d0b565b820191906000526020600020905b815481529060010190602001808311610cee57829003601f168201915b5050505050815260200182600b018054610d2490612195565b80601f0160208091040260200160405190810160405280929190818152602001828054610d5090612195565b8015610d9d5780601f10610d7257610100808354040283529160200191610d9d565b820191906000526020600020905b815481529060010190602001808311610d8057829003601f168201915b5050505050815260200182600c018054610db690612195565b80601f0160208091040260200160405190810160405280929190818152602001828054610de290612195565b8015610e2f5780601f10610e0457610100808354040283529160200191610e2f565b820191906000526020600020905b815481529060010190602001808311610e1257829003601f168201915b5050505050815260200182600d018054610e4890612195565b80601f0160208091040260200160405190810160405280929190818152602001828054610e7490612195565b8015610ec15780601f10610e9657610100808354040283529160200191610ec1565b820191906000526020600020905b815481529060010190602001808311610ea457829003601f168201915b5050505050815260200182600e018054610eda90612195565b80601f0160208091040260200160405190810160405280929190818152602001828054610f0690612195565b8015610f535780601f10610f2857610100808354040283529160200191610f53565b820191906000526020600020905b815481529060010190602001808311610f3657829003601f168201915b5050509190925250506040805160a08101825260149093015460ff80821615158552610100820481161515602086015262010000820481161515928501929092526301000000810482161515606085015264010000000090041615156080830152925090509193509193565b84600281604051610fd09190612179565b9081526040519081900360200190205460ff16156110305760405162461bcd60e51b815260206004820152601860248201527f557365726e616d6520616c7265616479206578697374732e000000000000000060448201526064016101cc565b600080876040516110419190612179565b908152604051908190036020019020865190915081906110619082612220565b50602086015160018201906110769082612220565b50600281016110858882612220565b506040860151600382019061109a9082612220565b50606086015160048201906110af9082612220565b50608086015160058201906110c49082612220565b5060a086015160088201906110d99082612220565b50845160068201906110eb9082612220565b50602085015160078201906111009082612220565b50604085015160098201906111159082612220565b508351600a8201906111279082612220565b506020840151600b82019061113c9082612220565b506040840151600c8201906111519082612220565b506060840151600d8201906111669082612220565b506080840151600e82019061117b9082612220565b506060850151600f8201906111909082612220565b50608085015180516111ac9160108401916020909101906116c8565b5060a085015160118201906111c19082612220565b5060128101805460ff191660019081179091558351601483018054602087015160408089015160608a015160808b015115156401000000000264ff000000001991151563010000000263ff0000001993151562010000029390931663ffff0000199515156101000261ff00199915159990991661ffff1990971696909617979097179390931693909317929092171692909217905551600290611265908a90612179565b9081526040805160209281900383019020805460ff19169315159390931790925533600090815260019091522061129c8882612220565b5050505050505050565b6000866040516112b69190612179565b9081526040519081900360200190206012015460ff1661130f5760405162461bcd60e51b81526020600482015260146024820152732ab9b2b9103237b2b9903737ba1032bc34b9ba1760611b60448201526064016101cc565b600080876040516113209190612179565b908152604051602091819003919091019020601401805461ffff191696151561ff00191696909617610100951515959095029490941763ffff00001916620100009315159390930263ff0000001916929092176301000000911515919091021764ff00000000191664010000000091151591909102179091555050565b73ffffffffffffffffffffffffffffffffffffffff811660009081526001602052604090208054606091906113d190612195565b80601f01602080910402602001604051908101604052809291908181526020018280546113fd90612195565b801561144a5780601f1061141f5761010080835404028352916020019161144a565b820191906000526020600020905b81548152906001019060200180831161142d57829003601f168201915b50505050509050919050565b6000856040516114669190612179565b9081526040519081900360200190206012015460ff166114bf5760405162461bcd60e51b81526020600482015260146024820152732ab9b2b9103237b2b9903737ba1032bc34b9ba1760611b60448201526064016101cc565b600080866040516114d09190612179565b908152604051908190036020019020855190915081906114f09082612220565b50602085015160018201906115059082612220565b506040850151600382019061151a9082612220565b506060850151600482019061152f9082612220565b50608085015160058201906115449082612220565b5060a085015160088201906115599082612220565b508351600682019061156b9082612220565b50602084015160078201906115809082612220565b50604084015160098201906115959082612220565b508251600a8201906115a79082612220565b506020830151600b8201906115bc9082612220565b506040830151600c8201906115d19082612220565b506060830151600d8201906115e69082612220565b506080830151600e8201906115fb9082612220565b506060840151600f8201906116109082612220565b506080840151805161162c9160108401916020909101906116c8565b5060a084015160118201906116419082612220565b5081516014909101805460208401516040850151606086015160809096015115156401000000000264ff000000001996151563010000000263ff0000001992151562010000029290921663ffff0000199315156101000261ff00199715159790971661ffff1990951694909417959095179190911691909117179290921617905550505050565b82805482825590600052602060002090810192821561170e579160200282015b8281111561170e57825182906116fe9082612220565b50916020019190600101906116e8565b5061171a92915061171e565b5090565b8082111561171a576000611732828261173b565b5060010161171e565b50805461174790612195565b6000825580601f10611757575050565b601f0160209004906000526020600020908101906117759190611778565b50565b5b8082111561171a5760008155600101611779565b634e487b7160e01b600052604160045260246000fd5b60405160c0810167ffffffffffffffff811182821017156117c6576117c661178d565b60405290565b60405160a0810167ffffffffffffffff811182821017156117c6576117c661178d565b604051601f8201601f1916810167ffffffffffffffff811182821017156118185761181861178d565b604052919050565b600082601f83011261183157600080fd5b813567ffffffffffffffff81111561184b5761184b61178d565b61185e601f8201601f19166020016117ef565b81815284602083860101111561187357600080fd5b816020850160208301376000918101602001919091529392505050565b6000602082840312156118a257600080fd5b813567ffffffffffffffff8111156118b957600080fd5b6118c584828501611820565b949350505050565b60a0810161191082848051151582526020810151151560208301526040810151151560408301526060810151151560608301526080810151151560808301525050565b92915050565b60006020828403121561192857600080fd5b813573ffffffffffffffffffffffffffffffffffffffff8116811461194c57600080fd5b9392505050565b60005b8381101561196e578181015183820152602001611956565b50506000910152565b6000815180845261198f816020860160208601611953565b601f01601f19169290920160200192915050565b6000815160c084526119b860c0850182611977565b9050602080840151858303828701526119d18382611977565b925050604084015185830360408701526119eb8382611977565b92505060608401518583036060870152611a058382611977565b925050608084015185830360808701528281518085528385019150838160051b860101848401935060005b82811015611a5e57601f19878303018452611a4c828651611977565b94860194938601939150600101611a30565b5060a0880151955088810360a08a0152611a788187611977565b9998505050505050505050565b6000815160a08452611a9a60a0850182611977565b905060208301518482036020860152611ab38282611977565b91505060408301518482036040860152611acd8282611977565b91505060608301518482036060860152611ae78282611977565b91505060808301518482036080860152611b018282611977565b95945050505050565b6000610100808352865160c082850152611b286101c0850182611977565b915050602087015160ff198085840301610120860152611b488383611977565b9250604089015191508085840301610140860152611b668383611977565b9250606089015191508085840301610160860152611b848383611977565b9250608089015191508085840301610180860152611ba28383611977565b925060a0890151915080858403016101a086015250611bc18282611977565b9150508281036020840152611bd681876119a3565b90508281036040840152611bea8186611a85565b915050611b0160608301848051151582526020810151151560208301526040810151151560408301526060810151151560608301526080810151151560808301525050565b600082601f830112611c4057600080fd5b8135602067ffffffffffffffff80831115611c5d57611c5d61178d565b8260051b611c6c8382016117ef565b9384528581018301938381019088861115611c8657600080fd5b84880192505b85831015611cc257823584811115611ca45760008081fd5b611cb28a87838c0101611820565b8352509184019190840190611c8c565b98975050505050505050565b600060c08284031215611ce057600080fd5b611ce86117a3565b9050813567ffffffffffffffff80821115611d0257600080fd5b611d0e85838601611820565b83526020840135915080821115611d2457600080fd5b611d3085838601611820565b60208401526040840135915080821115611d4957600080fd5b611d5585838601611820565b60408401526060840135915080821115611d6e57600080fd5b611d7a85838601611820565b60608401526080840135915080821115611d9357600080fd5b611d9f85838601611c2f565b608084015260a0840135915080821115611db857600080fd5b50611dc584828501611820565b60a08301525092915050565b600060a08284031215611de357600080fd5b611deb6117cc565b9050813567ffffffffffffffff80821115611e0557600080fd5b611e1185838601611820565b83526020840135915080821115611e2757600080fd5b611e3385838601611820565b60208401526040840135915080821115611e4c57600080fd5b611e5885838601611820565b60408401526060840135915080821115611e7157600080fd5b611e7d85838601611820565b60608401526080840135915080821115611e9657600080fd5b50611ea384828501611820565b60808301525092915050565b80358015158114611ebf57600080fd5b919050565b600060a08284031215611ed657600080fd5b611ede6117cc565b9050611ee982611eaf565b8152611ef760208301611eaf565b6020820152611f0860408301611eaf565b6040820152611f1960608301611eaf565b6060820152611f2a60808301611eaf565b608082015292915050565b60008060008060006101208688031215611f4e57600080fd5b853567ffffffffffffffff80821115611f6657600080fd5b611f7289838a01611820565b96506020880135915080821115611f8857600080fd5b9087019060c0828a031215611f9c57600080fd5b611fa46117a3565b823582811115611fb357600080fd5b611fbf8b828601611820565b825250602083013582811115611fd457600080fd5b611fe08b828601611820565b602083015250604083013582811115611ff857600080fd5b6120048b828601611820565b60408301525060608301358281111561201c57600080fd5b6120288b828601611820565b60608301525060808301358281111561204057600080fd5b61204c8b828601611820565b60808301525060a08301358281111561206457600080fd5b6120708b828601611820565b60a0830152509550604088013591508082111561208c57600080fd5b61209889838a01611cce565b945060608801359150808211156120ae57600080fd5b506120bb88828901611dd1565b9250506120cb8760808801611ec4565b90509295509295909350565b60008060008060008060c087890312156120f057600080fd5b863567ffffffffffffffff81111561210757600080fd5b61211389828a01611820565b96505061212260208801611eaf565b945061213060408801611eaf565b935061213e60608801611eaf565b925061214c60808801611eaf565b915061215a60a08801611eaf565b90509295509295509295565b60208152600061194c6020830184611977565b6000825161218b818460208701611953565b9190910192915050565b600181811c908216806121a957607f821691505b6020821081036121c957634e487b7160e01b600052602260045260246000fd5b50919050565b601f82111561221b576000816000526020600020601f850160051c810160208610156121f85750805b601f850160051c820191505b8181101561221757828155600101612204565b5050505b505050565b815167ffffffffffffffff81111561223a5761223a61178d565b61224e816122488454612195565b846121cf565b602080601f831160018114612283576000841561226b5750858301515b600019600386901b1c1916600185901b178555612217565b600085815260208120601f198616915b828110156122b257888601518255948401946001909101908401612293565b50858210156122d05787850151600019600388901b60f8161c191681555b5050505050600190811b0190555056fea2646970667358221220fdbf7852a39d4affcbb2e53e278aa7a02ace9cdfdc348b4937c0d5b05f05a9f664736f6c63430008180033",
  "linkReferences": {},
  "deployedLinkReferences": {}
}