{
  "contracts/PersonIdentify.sol": {
    "PersonIdentify": {
      "abi": [
        {
          "inputs": [
            {
              "internalType": "string",
              "name": "username",
              "type": "string"
            },
            {
              "components": [
                {
                  "internalType": "string",
                  "name": "firstName",
                  "type": "string"
                },
                {
                  "internalType": "string",
                  "name": "lastName",
                  "type": "string"
                },
                {
                  "internalType": "string",
                  "name": "email",
                  "type": "string"
                },
                {
                  "internalType": "string",
                  "name": "homeAddress",
                  "type": "string"
                },
                {
                  "internalType": "string",
                  "name": "dateOfBirth",
                  "type": "string"
                },
                {
                  "internalType": "string",
                  "name": "phoneNumber",
                  "type": "string"
                }
              ],
              "internalType": "struct PersonIdentify.BasicInfo",
              "name": "basicInfo",
              "type": "tuple"
            },
            {
              "components": [
                {
                  "internalType": "string",
                  "name": "education",
                  "type": "string"
                },
                {
                  "internalType": "string",
                  "name": "workHistory",
                  "type": "string"
                },
                {
                  "internalType": "string",
                  "name": "jobTitle",
                  "type": "string"
                },
                {
                  "internalType": "string",
                  "name": "info",
                  "type": "string"
                },
                {
                  "internalType": "string[]",
                  "name": "skills",
                  "type": "string[]"
                },
                {
                  "internalType": "string",
                  "name": "imageURL",
                  "type": "string"
                }
              ],
              "internalType": "struct PersonIdentify.ProfessionalInfo",
              "name": "professionalInfo",
              "type": "tuple"
            },
            {
              "components": [
                {
                  "internalType": "string",
                  "name": "x",
                  "type": "string"
                },
                {
                  "internalType": "string",
                  "name": "instagram",
                  "type": "string"
                },
                {
                  "internalType": "string",
                  "name": "tiktok",
                  "type": "string"
                },
                {
                  "internalType": "string",
                  "name": "youtube",
                  "type": "string"
                },
                {
                  "internalType": "string",
                  "name": "linkedin",
                  "type": "string"
                }
              ],
              "internalType": "struct PersonIdentify.SocialLinks",
              "name": "socialLinks",
              "type": "tuple"
            },
            {
              "components": [
                {
                  "internalType": "bool",
                  "name": "education",
                  "type": "bool"
                },
                {
                  "internalType": "bool",
                  "name": "workHistory",
                  "type": "bool"
                },
                {
                  "internalType": "bool",
                  "name": "phoneNumber",
                  "type": "bool"
                },
                {
                  "internalType": "bool",
                  "name": "homeAddress",
                  "type": "bool"
                },
                {
                  "internalType": "bool",
                  "name": "dateOfBirth",
                  "type": "bool"
                }
              ],
              "internalType": "struct PersonIdentify.Visibility",
              "name": "visibility",
              "type": "tuple"
            }
          ],
          "name": "createUser",
          "outputs": [],
          "stateMutability": "nonpayable",
          "type": "function"
        },
        {
          "inputs": [
            {
              "internalType": "string",
              "name": "username",
              "type": "string"
            },
            {
              "components": [
                {
                  "internalType": "string",
                  "name": "firstName",
                  "type": "string"
                },
                {
                  "internalType": "string",
                  "name": "lastName",
                  "type": "string"
                },
                {
                  "internalType": "string",
                  "name": "email",
                  "type": "string"
                },
                {
                  "internalType": "string",
                  "name": "homeAddress",
                  "type": "string"
                },
                {
                  "internalType": "string",
                  "name": "dateOfBirth",
                  "type": "string"
                },
                {
                  "internalType": "string",
                  "name": "phoneNumber",
                  "type": "string"
                }
              ],
              "internalType": "struct PersonIdentify.BasicInfo",
              "name": "basicInfo",
              "type": "tuple"
            },
            {
              "components": [
                {
                  "internalType": "string",
                  "name": "education",
                  "type": "string"
                },
                {
                  "internalType": "string",
                  "name": "workHistory",
                  "type": "string"
                },
                {
                  "internalType": "string",
                  "name": "jobTitle",
                  "type": "string"
                },
                {
                  "internalType": "string",
                  "name": "info",
                  "type": "string"
                },
                {
                  "internalType": "string[]",
                  "name": "skills",
                  "type": "string[]"
                },
                {
                  "internalType": "string",
                  "name": "imageURL",
                  "type": "string"
                }
              ],
              "internalType": "struct PersonIdentify.ProfessionalInfo",
              "name": "professionalInfo",
              "type": "tuple"
            },
            {
              "components": [
                {
                  "internalType": "string",
                  "name": "x",
                  "type": "string"
                },
                {
                  "internalType": "string",
                  "name": "instagram",
                  "type": "string"
                },
                {
                  "internalType": "string",
                  "name": "tiktok",
                  "type": "string"
                },
                {
                  "internalType": "string",
                  "name": "youtube",
                  "type": "string"
                },
                {
                  "internalType": "string",
                  "name": "linkedin",
                  "type": "string"
                }
              ],
              "internalType": "struct PersonIdentify.SocialLinks",
              "name": "socialLinks",
              "type": "tuple"
            },
            {
              "components": [
                {
                  "internalType": "bool",
                  "name": "education",
                  "type": "bool"
                },
                {
                  "internalType": "bool",
                  "name": "workHistory",
                  "type": "bool"
                },
                {
                  "internalType": "bool",
                  "name": "phoneNumber",
                  "type": "bool"
                },
                {
                  "internalType": "bool",
                  "name": "homeAddress",
                  "type": "bool"
                },
                {
                  "internalType": "bool",
                  "name": "dateOfBirth",
                  "type": "bool"
                }
              ],
              "internalType": "struct PersonIdentify.Visibility",
              "name": "visibility",
              "type": "tuple"
            }
          ],
          "name": "editUser",
          "outputs": [],
          "stateMutability": "nonpayable",
          "type": "function"
        },
        {
          "inputs": [
            {
              "internalType": "address",
              "name": "userAddress",
              "type": "address"
            }
          ],
          "name": "getUserByAddress",
          "outputs": [
            {
              "components": [
                {
                  "internalType": "string",
                  "name": "firstName",
                  "type": "string"
                },
                {
                  "internalType": "string",
                  "name": "lastName",
                  "type": "string"
                },
                {
                  "internalType": "string",
                  "name": "email",
                  "type": "string"
                },
                {
                  "internalType": "string",
                  "name": "homeAddress",
                  "type": "string"
                },
                {
                  "internalType": "string",
                  "name": "dateOfBirth",
                  "type": "string"
                },
                {
                  "internalType": "string",
                  "name": "phoneNumber",
                  "type": "string"
                }
              ],
              "internalType": "struct PersonIdentify.BasicInfo",
              "name": "basicInfo",
              "type": "tuple"
            },
            {
              "components": [
                {
                  "internalType": "string",
                  "name": "education",
                  "type": "string"
                },
                {
                  "internalType": "string",
                  "name": "workHistory",
                  "type": "string"
                },
                {
                  "internalType": "string",
                  "name": "jobTitle",
                  "type": "string"
                },
                {
                  "internalType": "string",
                  "name": "info",
                  "type": "string"
                },
                {
                  "internalType": "string[]",
                  "name": "skills",
                  "type": "string[]"
                },
                {
                  "internalType": "string",
                  "name": "imageURL",
                  "type": "string"
                }
              ],
              "internalType": "struct PersonIdentify.ProfessionalInfo",
              "name": "professionalInfo",
              "type": "tuple"
            },
            {
              "components": [
                {
                  "internalType": "string",
                  "name": "x",
                  "type": "string"
                },
                {
                  "internalType": "string",
                  "name": "instagram",
                  "type": "string"
                },
                {
                  "internalType": "string",
                  "name": "tiktok",
                  "type": "string"
                },
                {
                  "internalType": "string",
                  "name": "youtube",
                  "type": "string"
                },
                {
                  "internalType": "string",
                  "name": "linkedin",
                  "type": "string"
                }
              ],
              "internalType": "struct PersonIdentify.SocialLinks",
              "name": "socialLinks",
              "type": "tuple"
            },
            {
              "components": [
                {
                  "internalType": "bool",
                  "name": "education",
                  "type": "bool"
                },
                {
                  "internalType": "bool",
                  "name": "workHistory",
                  "type": "bool"
                },
                {
                  "internalType": "bool",
                  "name": "phoneNumber",
                  "type": "bool"
                },
                {
                  "internalType": "bool",
                  "name": "homeAddress",
                  "type": "bool"
                },
                {
                  "internalType": "bool",
                  "name": "dateOfBirth",
                  "type": "bool"
                }
              ],
              "internalType": "struct PersonIdentify.Visibility",
              "name": "visibility",
              "type": "tuple"
            }
          ],
          "stateMutability": "view",
          "type": "function"
        },
        {
          "inputs": [
            {
              "internalType": "string",
              "name": "username",
              "type": "string"
            }
          ],
          "name": "getUserByUsername",
          "outputs": [
            {
              "components": [
                {
                  "internalType": "string",
                  "name": "firstName",
                  "type": "string"
                },
                {
                  "internalType": "string",
                  "name": "lastName",
                  "type": "string"
                },
                {
                  "internalType": "string",
                  "name": "email",
                  "type": "string"
                },
                {
                  "internalType": "string",
                  "name": "homeAddress",
                  "type": "string"
                },
                {
                  "internalType": "string",
                  "name": "dateOfBirth",
                  "type": "string"
                },
                {
                  "internalType": "string",
                  "name": "phoneNumber",
                  "type": "string"
                }
              ],
              "internalType": "struct PersonIdentify.BasicInfo",
              "name": "basicInfo",
              "type": "tuple"
            },
            {
              "components": [
                {
                  "internalType": "string",
                  "name": "education",
                  "type": "string"
                },
                {
                  "internalType": "string",
                  "name": "workHistory",
                  "type": "string"
                },
                {
                  "internalType": "string",
                  "name": "jobTitle",
                  "type": "string"
                },
                {
                  "internalType": "string",
                  "name": "info",
                  "type": "string"
                },
                {
                  "internalType": "string[]",
                  "name": "skills",
                  "type": "string[]"
                },
                {
                  "internalType": "string",
                  "name": "imageURL",
                  "type": "string"
                }
              ],
              "internalType": "struct PersonIdentify.ProfessionalInfo",
              "name": "professionalInfo",
              "type": "tuple"
            },
            {
              "components": [
                {
                  "internalType": "string",
                  "name": "x",
                  "type": "string"
                },
                {
                  "internalType": "string",
                  "name": "instagram",
                  "type": "string"
                },
                {
                  "internalType": "string",
                  "name": "tiktok",
                  "type": "string"
                },
                {
                  "internalType": "string",
                  "name": "youtube",
                  "type": "string"
                },
                {
                  "internalType": "string",
                  "name": "linkedin",
                  "type": "string"
                }
              ],
              "internalType": "struct PersonIdentify.SocialLinks",
              "name": "socialLinks",
              "type": "tuple"
            },
            {
              "components": [
                {
                  "internalType": "bool",
                  "name": "education",
                  "type": "bool"
                },
                {
                  "internalType": "bool",
                  "name": "workHistory",
                  "type": "bool"
                },
                {
                  "internalType": "bool",
                  "name": "phoneNumber",
                  "type": "bool"
                },
                {
                  "internalType": "bool",
                  "name": "homeAddress",
                  "type": "bool"
                },
                {
                  "internalType": "bool",
                  "name": "dateOfBirth",
                  "type": "bool"
                }
              ],
              "internalType": "struct PersonIdentify.Visibility",
              "name": "visibility",
              "type": "tuple"
            }
          ],
          "stateMutability": "view",
          "type": "function"
        },
        {
          "inputs": [
            {
              "internalType": "address",
              "name": "userAddress",
              "type": "address"
            }
          ],
          "name": "getUsernameByAddress",
          "outputs": [
            {
              "internalType": "string",
              "name": "",
              "type": "string"
            }
          ],
          "stateMutability": "view",
          "type": "function"
        },
        {
          "inputs": [
            {
              "internalType": "string",
              "name": "username",
              "type": "string"
            }
          ],
          "name": "getVisibility",
          "outputs": [
            {
              "components": [
                {
                  "internalType": "bool",
                  "name": "education",
                  "type": "bool"
                },
                {
                  "internalType": "bool",
                  "name": "workHistory",
                  "type": "bool"
                },
                {
                  "internalType": "bool",
                  "name": "phoneNumber",
                  "type": "bool"
                },
                {
                  "internalType": "bool",
                  "name": "homeAddress",
                  "type": "bool"
                },
                {
                  "internalType": "bool",
                  "name": "dateOfBirth",
                  "type": "bool"
                }
              ],
              "internalType": "struct PersonIdentify.Visibility",
              "name": "",
              "type": "tuple"
            }
          ],
          "stateMutability": "view",
          "type": "function"
        },
        {
          "inputs": [
            {
              "internalType": "string",
              "name": "username",
              "type": "string"
            },
            {
              "internalType": "bool",
              "name": "education",
              "type": "bool"
            },
            {
              "internalType": "bool",
              "name": "workHistory",
              "type": "bool"
            },
            {
              "internalType": "bool",
              "name": "phoneNumber",
              "type": "bool"
            },
            {
              "internalType": "bool",
              "name": "homeAddress",
              "type": "bool"
            },
            {
              "internalType": "bool",
              "name": "dateOfBirth",
              "type": "bool"
            }
          ],
          "name": "setVisibility",
          "outputs": [],
          "stateMutability": "nonpayable",
          "type": "function"
        }
      ],
      "evm": {
        "bytecode": {
          "linkReferences": {},
          "object": "608060405234801561001057600080fd5b50612316806100206000396000f3fe608060405234801561001057600080fd5b506004361061007d5760003560e01c8063bb6228b01161005b578063bb6228b0146100e1578063d1577cac146100f6578063ed1a998d14610109578063f86a29c71461012957600080fd5b8063320ba8f71461008257806369c212f6146100ab5780639f42af63146100ce575b600080fd5b610095610090366004611890565b61013c565b6040516100a291906118cd565b60405180910390f35b6100be6100b9366004611916565b610252565b6040516100a29493929190611b0a565b6100be6100dc366004611890565b6103ea565b6100f46100ef366004611f35565b610fbf565b005b6100f46101043660046120d7565b6112a6565b61011c610117366004611916565b61139d565b6040516100a29190612166565b6100f4610137366004611f35565b611456565b6040805160a0810182526000808252602082018190529181018290526060810182905260808101919091526000826040516101779190612179565b9081526040519081900360200190206012015460ff166101d55760405162461bcd60e51b81526020600482015260146024820152732ab9b2b9103237b2b9903737ba1032bc34b9ba1760611b60448201526064015b60405180910390fd5b6000826040516101e59190612179565b90815260408051918290036020908101832060a0840183526014015460ff8082161515855261010082048116151592850192909252620100008104821615159284019290925263010000008204811615156060840152640100000000909104161515608082015292915050565b61028b6040518060c001604052806060815260200160608152602001606081526020016060815260200160608152602001606081525090565b6102c46040518060c001604052806060815260200160608152602001606081526020016060815260200160608152602001606081525090565b6102f66040518060a0016040528060608152602001606081526020016060815260200160608152602001606081525090565b6040805160a08101825260008082526020820181905291810182905260608101829052608081019190915273ffffffffffffffffffffffffffffffffffffffff85166000908152600160205260408120805461035190612195565b80601f016020809104026020016040519081016040528092919081815260200182805461037d90612195565b80156103ca5780601f1061039f576101008083540402835291602001916103ca565b820191906000526020600020905b8154815290600101906020018083116103ad57829003601f168201915b505050505090506103da816103ea565b9450945094509450509193509193565b6104236040518060c001604052806060815260200160608152602001606081526020016060815260200160608152602001606081525090565b61045c6040518060c001604052806060815260200160608152602001606081526020016060815260200160608152602001606081525090565b61048e6040518060a0016040528060608152602001606081526020016060815260200160608152602001606081525090565b6040805160a0810182526000808252602082018190529181018290526060810182905260808101919091526000856040516104c99190612179565b9081526040519081900360200190206012015460ff166105225760405162461bcd60e51b81526020600482015260146024820152732ab9b2b9103237b2b9903737ba1032bc34b9ba1760611b60448201526064016101cc565b600080866040516105339190612179565b908152602001604051809103902090506040518060c0016040528082600001805461055d90612195565b80601f016020809104026020016040519081016040528092919081815260200182805461058990612195565b80156105d65780601f106105ab576101008083540402835291602001916105d6565b820191906000526020600020905b8154815290600101906020018083116105b957829003601f168201915b505050505081526020018260010180546105ef90612195565b80601f016020809104026020016040519081016040528092919081815260200182805461061b90612195565b80156106685780601f1061063d57610100808354040283529160200191610668565b820191906000526020600020905b81548152906001019060200180831161064b57829003601f168201915b5050505050815260200182600301805461068190612195565b80601f01602080910402602001604051908101604052809291908181526020018280546106ad90612195565b80156106fa5780601f106106cf576101008083540402835291602001916106fa565b820191906000526020600020905b8154815290600101906020018083116106dd57829003601f168201915b5050505050815260200182600401805461071390612195565b80601f016020809104026020016040519081016040528092919081815260200182805461073f90612195565b801561078c5780601f106107615761010080835404028352916020019161078c565b820191906000526020600020905b81548152906001019060200180831161076f57829003601f168201915b505050505081526020018260050180546107a590612195565b80601f01602080910402602001604051908101604052809291908181526020018280546107d190612195565b801561081e5780601f106107f35761010080835404028352916020019161081e565b820191906000526020600020905b81548152906001019060200180831161080157829003601f168201915b5050505050815260200182600801805461083790612195565b80601f016020809104026020016040519081016040528092919081815260200182805461086390612195565b80156108b05780601f10610885576101008083540402835291602001916108b0565b820191906000526020600020905b81548152906001019060200180831161089357829003601f168201915b505050505081525094506040518060c001604052808260060180546108d490612195565b80601f016020809104026020016040519081016040528092919081815260200182805461090090612195565b801561094d5780601f106109225761010080835404028352916020019161094d565b820191906000526020600020905b81548152906001019060200180831161093057829003601f168201915b5050505050815260200182600701805461096690612195565b80601f016020809104026020016040519081016040528092919081815260200182805461099290612195565b80156109df5780601f106109b4576101008083540402835291602001916109df565b820191906000526020600020905b8154815290600101906020018083116109c257829003601f168201915b505050505081526020018260090180546109f890612195565b80601f0160208091040260200160405190810160405280929190818152602001828054610a2490612195565b8015610a715780601f10610a4657610100808354040283529160200191610a71565b820191906000526020600020905b815481529060010190602001808311610a5457829003601f168201915b5050505050815260200182600f018054610a8a90612195565b80601f0160208091040260200160405190810160405280929190818152602001828054610ab690612195565b8015610b035780601f10610ad857610100808354040283529160200191610b03565b820191906000526020600020905b815481529060010190602001808311610ae657829003601f168201915b5050505050815260200182601001805480602002602001604051908101604052809291908181526020016000905b82821015610bdd578382906000526020600020018054610b5090612195565b80601f0160208091040260200160405190810160405280929190818152602001828054610b7c90612195565b8015610bc95780601f10610b9e57610100808354040283529160200191610bc9565b820191906000526020600020905b815481529060010190602001808311610bac57829003601f168201915b505050505081526020019060010190610b31565b505050508152602001826011018054610bf590612195565b80601f0160208091040260200160405190810160405280929190818152602001828054610c2190612195565b8015610c6e5780601f10610c4357610100808354040283529160200191610c6e565b820191906000526020600020905b815481529060010190602001808311610c5157829003601f168201915b505050505081525093506040518060a0016040528082600a018054610c9290612195565b80601f0160208091040260200160405190810160405280929190818152602001828054610cbe90612195565b8015610d0b5780601f10610ce057610100808354040283529160200191610d0b565b820191906000526020600020905b815481529060010190602001808311610cee57829003601f168201915b5050505050815260200182600b018054610d2490612195565b80601f0160208091040260200160405190810160405280929190818152602001828054610d5090612195565b8015610d9d5780601f10610d7257610100808354040283529160200191610d9d565b820191906000526020600020905b815481529060010190602001808311610d8057829003601f168201915b5050505050815260200182600c018054610db690612195565b80601f0160208091040260200160405190810160405280929190818152602001828054610de290612195565b8015610e2f5780601f10610e0457610100808354040283529160200191610e2f565b820191906000526020600020905b815481529060010190602001808311610e1257829003601f168201915b5050505050815260200182600d018054610e4890612195565b80601f0160208091040260200160405190810160405280929190818152602001828054610e7490612195565b8015610ec15780601f10610e9657610100808354040283529160200191610ec1565b820191906000526020600020905b815481529060010190602001808311610ea457829003601f168201915b5050505050815260200182600e018054610eda90612195565b80601f0160208091040260200160405190810160405280929190818152602001828054610f0690612195565b8015610f535780601f10610f2857610100808354040283529160200191610f53565b820191906000526020600020905b815481529060010190602001808311610f3657829003601f168201915b5050509190925250506040805160a08101825260149093015460ff80821615158552610100820481161515602086015262010000820481161515928501929092526301000000810482161515606085015264010000000090041615156080830152925090509193509193565b84600281604051610fd09190612179565b9081526040519081900360200190205460ff16156110305760405162461bcd60e51b815260206004820152601860248201527f557365726e616d6520616c7265616479206578697374732e000000000000000060448201526064016101cc565b600080876040516110419190612179565b908152604051908190036020019020865190915081906110619082612220565b50602086015160018201906110769082612220565b50600281016110858882612220565b506040860151600382019061109a9082612220565b50606086015160048201906110af9082612220565b50608086015160058201906110c49082612220565b5060a086015160088201906110d99082612220565b50845160068201906110eb9082612220565b50602085015160078201906111009082612220565b50604085015160098201906111159082612220565b508351600a8201906111279082612220565b506020840151600b82019061113c9082612220565b506040840151600c8201906111519082612220565b506060840151600d8201906111669082612220565b506080840151600e82019061117b9082612220565b506060850151600f8201906111909082612220565b50608085015180516111ac9160108401916020909101906116c8565b5060a085015160118201906111c19082612220565b5060128101805460ff191660019081179091558351601483018054602087015160408089015160608a015160808b015115156401000000000264ff000000001991151563010000000263ff0000001993151562010000029390931663ffff0000199515156101000261ff00199915159990991661ffff1990971696909617979097179390931693909317929092171692909217905551600290611265908a90612179565b9081526040805160209281900383019020805460ff19169315159390931790925533600090815260019091522061129c8882612220565b5050505050505050565b6000866040516112b69190612179565b9081526040519081900360200190206012015460ff1661130f5760405162461bcd60e51b81526020600482015260146024820152732ab9b2b9103237b2b9903737ba1032bc34b9ba1760611b60448201526064016101cc565b600080876040516113209190612179565b908152604051602091819003919091019020601401805461ffff191696151561ff00191696909617610100951515959095029490941763ffff00001916620100009315159390930263ff0000001916929092176301000000911515919091021764ff00000000191664010000000091151591909102179091555050565b73ffffffffffffffffffffffffffffffffffffffff811660009081526001602052604090208054606091906113d190612195565b80601f01602080910402602001604051908101604052809291908181526020018280546113fd90612195565b801561144a5780601f1061141f5761010080835404028352916020019161144a565b820191906000526020600020905b81548152906001019060200180831161142d57829003601f168201915b50505050509050919050565b6000856040516114669190612179565b9081526040519081900360200190206012015460ff166114bf5760405162461bcd60e51b81526020600482015260146024820152732ab9b2b9103237b2b9903737ba1032bc34b9ba1760611b60448201526064016101cc565b600080866040516114d09190612179565b908152604051908190036020019020855190915081906114f09082612220565b50602085015160018201906115059082612220565b506040850151600382019061151a9082612220565b506060850151600482019061152f9082612220565b50608085015160058201906115449082612220565b5060a085015160088201906115599082612220565b508351600682019061156b9082612220565b50602084015160078201906115809082612220565b50604084015160098201906115959082612220565b508251600a8201906115a79082612220565b506020830151600b8201906115bc9082612220565b506040830151600c8201906115d19082612220565b506060830151600d8201906115e69082612220565b506080830151600e8201906115fb9082612220565b506060840151600f8201906116109082612220565b506080840151805161162c9160108401916020909101906116c8565b5060a084015160118201906116419082612220565b5081516014909101805460208401516040850151606086015160809096015115156401000000000264ff000000001996151563010000000263ff0000001992151562010000029290921663ffff0000199315156101000261ff00199715159790971661ffff1990951694909417959095179190911691909117179290921617905550505050565b82805482825590600052602060002090810192821561170e579160200282015b8281111561170e57825182906116fe9082612220565b50916020019190600101906116e8565b5061171a92915061171e565b5090565b8082111561171a576000611732828261173b565b5060010161171e565b50805461174790612195565b6000825580601f10611757575050565b601f0160209004906000526020600020908101906117759190611778565b50565b5b8082111561171a5760008155600101611779565b634e487b7160e01b600052604160045260246000fd5b60405160c0810167ffffffffffffffff811182821017156117c6576117c661178d565b60405290565b60405160a0810167ffffffffffffffff811182821017156117c6576117c661178d565b604051601f8201601f1916810167ffffffffffffffff811182821017156118185761181861178d565b604052919050565b600082601f83011261183157600080fd5b813567ffffffffffffffff81111561184b5761184b61178d565b61185e601f8201601f19166020016117ef565b81815284602083860101111561187357600080fd5b816020850160208301376000918101602001919091529392505050565b6000602082840312156118a257600080fd5b813567ffffffffffffffff8111156118b957600080fd5b6118c584828501611820565b949350505050565b60a0810161191082848051151582526020810151151560208301526040810151151560408301526060810151151560608301526080810151151560808301525050565b92915050565b60006020828403121561192857600080fd5b813573ffffffffffffffffffffffffffffffffffffffff8116811461194c57600080fd5b9392505050565b60005b8381101561196e578181015183820152602001611956565b50506000910152565b6000815180845261198f816020860160208601611953565b601f01601f19169290920160200192915050565b6000815160c084526119b860c0850182611977565b9050602080840151858303828701526119d18382611977565b925050604084015185830360408701526119eb8382611977565b92505060608401518583036060870152611a058382611977565b925050608084015185830360808701528281518085528385019150838160051b860101848401935060005b82811015611a5e57601f19878303018452611a4c828651611977565b94860194938601939150600101611a30565b5060a0880151955088810360a08a0152611a788187611977565b9998505050505050505050565b6000815160a08452611a9a60a0850182611977565b905060208301518482036020860152611ab38282611977565b91505060408301518482036040860152611acd8282611977565b91505060608301518482036060860152611ae78282611977565b91505060808301518482036080860152611b018282611977565b95945050505050565b6000610100808352865160c082850152611b286101c0850182611977565b915050602087015160ff198085840301610120860152611b488383611977565b9250604089015191508085840301610140860152611b668383611977565b9250606089015191508085840301610160860152611b848383611977565b9250608089015191508085840301610180860152611ba28383611977565b925060a0890151915080858403016101a086015250611bc18282611977565b9150508281036020840152611bd681876119a3565b90508281036040840152611bea8186611a85565b915050611b0160608301848051151582526020810151151560208301526040810151151560408301526060810151151560608301526080810151151560808301525050565b600082601f830112611c4057600080fd5b8135602067ffffffffffffffff80831115611c5d57611c5d61178d565b8260051b611c6c8382016117ef565b9384528581018301938381019088861115611c8657600080fd5b84880192505b85831015611cc257823584811115611ca45760008081fd5b611cb28a87838c0101611820565b8352509184019190840190611c8c565b98975050505050505050565b600060c08284031215611ce057600080fd5b611ce86117a3565b9050813567ffffffffffffffff80821115611d0257600080fd5b611d0e85838601611820565b83526020840135915080821115611d2457600080fd5b611d3085838601611820565b60208401526040840135915080821115611d4957600080fd5b611d5585838601611820565b60408401526060840135915080821115611d6e57600080fd5b611d7a85838601611820565b60608401526080840135915080821115611d9357600080fd5b611d9f85838601611c2f565b608084015260a0840135915080821115611db857600080fd5b50611dc584828501611820565b60a08301525092915050565b600060a08284031215611de357600080fd5b611deb6117cc565b9050813567ffffffffffffffff80821115611e0557600080fd5b611e1185838601611820565b83526020840135915080821115611e2757600080fd5b611e3385838601611820565b60208401526040840135915080821115611e4c57600080fd5b611e5885838601611820565b60408401526060840135915080821115611e7157600080fd5b611e7d85838601611820565b60608401526080840135915080821115611e9657600080fd5b50611ea384828501611820565b60808301525092915050565b80358015158114611ebf57600080fd5b919050565b600060a08284031215611ed657600080fd5b611ede6117cc565b9050611ee982611eaf565b8152611ef760208301611eaf565b6020820152611f0860408301611eaf565b6040820152611f1960608301611eaf565b6060820152611f2a60808301611eaf565b608082015292915050565b60008060008060006101208688031215611f4e57600080fd5b853567ffffffffffffffff80821115611f6657600080fd5b611f7289838a01611820565b96506020880135915080821115611f8857600080fd5b9087019060c0828a031215611f9c57600080fd5b611fa46117a3565b823582811115611fb357600080fd5b611fbf8b828601611820565b825250602083013582811115611fd457600080fd5b611fe08b828601611820565b602083015250604083013582811115611ff857600080fd5b6120048b828601611820565b60408301525060608301358281111561201c57600080fd5b6120288b828601611820565b60608301525060808301358281111561204057600080fd5b61204c8b828601611820565b60808301525060a08301358281111561206457600080fd5b6120708b828601611820565b60a0830152509550604088013591508082111561208c57600080fd5b61209889838a01611cce565b945060608801359150808211156120ae57600080fd5b506120bb88828901611dd1565b9250506120cb8760808801611ec4565b90509295509295909350565b60008060008060008060c087890312156120f057600080fd5b863567ffffffffffffffff81111561210757600080fd5b61211389828a01611820565b96505061212260208801611eaf565b945061213060408801611eaf565b935061213e60608801611eaf565b925061214c60808801611eaf565b915061215a60a08801611eaf565b90509295509295509295565b60208152600061194c6020830184611977565b6000825161218b818460208701611953565b9190910192915050565b600181811c908216806121a957607f821691505b6020821081036121c957634e487b7160e01b600052602260045260246000fd5b50919050565b601f82111561221b576000816000526020600020601f850160051c810160208610156121f85750805b601f850160051c820191505b8181101561221757828155600101612204565b5050505b505050565b815167ffffffffffffffff81111561223a5761223a61178d565b61224e816122488454612195565b846121cf565b602080601f831160018114612283576000841561226b5750858301515b600019600386901b1c1916600185901b178555612217565b600085815260208120601f198616915b828110156122b257888601518255948401946001909101908401612293565b50858210156122d05787850151600019600388901b60f8161c191681555b5050505050600190811b0190555056fea2646970667358221220fdbf7852a39d4affcbb2e53e278aa7a02ace9cdfdc348b4937c0d5b05f05a9f664736f6c63430008180033",
          "opcodes": "PUSH1 0x80 PUSH1 0x40 MSTORE CALLVALUE DUP1 ISZERO PUSH2 0x10 JUMPI PUSH1 0x0 DUP1 REVERT JUMPDEST POP PUSH2 0x2316 DUP1 PUSH2 0x20 PUSH1 0x0 CODECOPY PUSH1 0x0 RETURN INVALID PUSH1 0x80 PUSH1 0x40 MSTORE CALLVALUE DUP1 ISZERO PUSH2 0x10 JUMPI PUSH1 0x0 DUP1 REVERT JUMPDEST POP PUSH1 0x4 CALLDATASIZE LT PUSH2 0x7D JUMPI PUSH1 0x0 CALLDATALOAD PUSH1 0xE0 SHR DUP1 PUSH4 0xBB6228B0 GT PUSH2 0x5B JUMPI DUP1 PUSH4 0xBB6228B0 EQ PUSH2 0xE1 JUMPI DUP1 PUSH4 0xD1577CAC EQ PUSH2 0xF6 JUMPI DUP1 PUSH4 0xED1A998D EQ PUSH2 0x109 JUMPI DUP1 PUSH4 0xF86A29C7 EQ PUSH2 0x129 JUMPI PUSH1 0x0 DUP1 REVERT JUMPDEST DUP1 PUSH4 0x320BA8F7 EQ PUSH2 0x82 JUMPI DUP1 PUSH4 0x69C212F6 EQ PUSH2 0xAB JUMPI DUP1 PUSH4 0x9F42AF63 EQ PUSH2 0xCE JUMPI JUMPDEST PUSH1 0x0 DUP1 REVERT JUMPDEST PUSH2 0x95 PUSH2 0x90 CALLDATASIZE PUSH1 0x4 PUSH2 0x1890 JUMP JUMPDEST PUSH2 0x13C JUMP JUMPDEST PUSH1 0x40 MLOAD PUSH2 0xA2 SWAP2 SWAP1 PUSH2 0x18CD JUMP JUMPDEST PUSH1 0x40 MLOAD DUP1 SWAP2 SUB SWAP1 RETURN JUMPDEST PUSH2 0xBE PUSH2 0xB9 CALLDATASIZE PUSH1 0x4 PUSH2 0x1916 JUMP JUMPDEST PUSH2 0x252 JUMP JUMPDEST PUSH1 0x40 MLOAD PUSH2 0xA2 SWAP5 SWAP4 SWAP3 SWAP2 SWAP1 PUSH2 0x1B0A JUMP JUMPDEST PUSH2 0xBE PUSH2 0xDC CALLDATASIZE PUSH1 0x4 PUSH2 0x1890 JUMP JUMPDEST PUSH2 0x3EA JUMP JUMPDEST PUSH2 0xF4 PUSH2 0xEF CALLDATASIZE PUSH1 0x4 PUSH2 0x1F35 JUMP JUMPDEST PUSH2 0xFBF JUMP JUMPDEST STOP JUMPDEST PUSH2 0xF4 PUSH2 0x104 CALLDATASIZE PUSH1 0x4 PUSH2 0x20D7 JUMP JUMPDEST PUSH2 0x12A6 JUMP JUMPDEST PUSH2 0x11C PUSH2 0x117 CALLDATASIZE PUSH1 0x4 PUSH2 0x1916 JUMP JUMPDEST PUSH2 0x139D JUMP JUMPDEST PUSH1 0x40 MLOAD PUSH2 0xA2 SWAP2 SWAP1 PUSH2 0x2166 JUMP JUMPDEST PUSH2 0xF4 PUSH2 0x137 CALLDATASIZE PUSH1 0x4 PUSH2 0x1F35 JUMP JUMPDEST PUSH2 0x1456 JUMP JUMPDEST PUSH1 0x40 DUP1 MLOAD PUSH1 0xA0 DUP2 ADD DUP3 MSTORE PUSH1 0x0 DUP1 DUP3 MSTORE PUSH1 0x20 DUP3 ADD DUP2 SWAP1 MSTORE SWAP2 DUP2 ADD DUP3 SWAP1 MSTORE PUSH1 0x60 DUP2 ADD DUP3 SWAP1 MSTORE PUSH1 0x80 DUP2 ADD SWAP2 SWAP1 SWAP2 MSTORE PUSH1 0x0 DUP3 PUSH1 0x40 MLOAD PUSH2 0x177 SWAP2 SWAP1 PUSH2 0x2179 JUMP JUMPDEST SWAP1 DUP2 MSTORE PUSH1 0x40 MLOAD SWAP1 DUP2 SWAP1 SUB PUSH1 0x20 ADD SWAP1 KECCAK256 PUSH1 0x12 ADD SLOAD PUSH1 0xFF AND PUSH2 0x1D5 JUMPI PUSH1 0x40 MLOAD PUSH3 0x461BCD PUSH1 0xE5 SHL DUP2 MSTORE PUSH1 0x20 PUSH1 0x4 DUP3 ADD MSTORE PUSH1 0x14 PUSH1 0x24 DUP3 ADD MSTORE PUSH20 0x2AB9B2B9103237B2B9903737BA1032BC34B9BA17 PUSH1 0x61 SHL PUSH1 0x44 DUP3 ADD MSTORE PUSH1 0x64 ADD JUMPDEST PUSH1 0x40 MLOAD DUP1 SWAP2 SUB SWAP1 REVERT JUMPDEST PUSH1 0x0 DUP3 PUSH1 0x40 MLOAD PUSH2 0x1E5 SWAP2 SWAP1 PUSH2 0x2179 JUMP JUMPDEST SWAP1 DUP2 MSTORE PUSH1 0x40 DUP1 MLOAD SWAP2 DUP3 SWAP1 SUB PUSH1 0x20 SWAP1 DUP2 ADD DUP4 KECCAK256 PUSH1 0xA0 DUP5 ADD DUP4 MSTORE PUSH1 0x14 ADD SLOAD PUSH1 0xFF DUP1 DUP3 AND ISZERO ISZERO DUP6 MSTORE PUSH2 0x100 DUP3 DIV DUP2 AND ISZERO ISZERO SWAP3 DUP6 ADD SWAP3 SWAP1 SWAP3 MSTORE PUSH3 0x10000 DUP2 DIV DUP3 AND ISZERO ISZERO SWAP3 DUP5 ADD SWAP3 SWAP1 SWAP3 MSTORE PUSH4 0x1000000 DUP3 DIV DUP2 AND ISZERO ISZERO PUSH1 0x60 DUP5 ADD MSTORE PUSH5 0x100000000 SWAP1 SWAP2 DIV AND ISZERO ISZERO PUSH1 0x80 DUP3 ADD MSTORE SWAP3 SWAP2 POP POP JUMP JUMPDEST PUSH2 0x28B PUSH1 0x40 MLOAD DUP1 PUSH1 0xC0 ADD PUSH1 0x40 MSTORE DUP1 PUSH1 0x60 DUP2 MSTORE PUSH1 0x20 ADD PUSH1 0x60 DUP2 MSTORE PUSH1 0x20 ADD PUSH1 0x60 DUP2 MSTORE PUSH1 0x20 ADD PUSH1 0x60 DUP2 MSTORE PUSH1 0x20 ADD PUSH1 0x60 DUP2 MSTORE PUSH1 0x20 ADD PUSH1 0x60 DUP2 MSTORE POP SWAP1 JUMP JUMPDEST PUSH2 0x2C4 PUSH1 0x40 MLOAD DUP1 PUSH1 0xC0 ADD PUSH1 0x40 MSTORE DUP1 PUSH1 0x60 DUP2 MSTORE PUSH1 0x20 ADD PUSH1 0x60 DUP2 MSTORE PUSH1 0x20 ADD PUSH1 0x60 DUP2 MSTORE PUSH1 0x20 ADD PUSH1 0x60 DUP2 MSTORE PUSH1 0x20 ADD PUSH1 0x60 DUP2 MSTORE PUSH1 0x20 ADD PUSH1 0x60 DUP2 MSTORE POP SWAP1 JUMP JUMPDEST PUSH2 0x2F6 PUSH1 0x40 MLOAD DUP1 PUSH1 0xA0 ADD PUSH1 0x40 MSTORE DUP1 PUSH1 0x60 DUP2 MSTORE PUSH1 0x20 ADD PUSH1 0x60 DUP2 MSTORE PUSH1 0x20 ADD PUSH1 0x60 DUP2 MSTORE PUSH1 0x20 ADD PUSH1 0x60 DUP2 MSTORE PUSH1 0x20 ADD PUSH1 0x60 DUP2 MSTORE POP SWAP1 JUMP JUMPDEST PUSH1 0x40 DUP1 MLOAD PUSH1 0xA0 DUP2 ADD DUP3 MSTORE PUSH1 0x0 DUP1 DUP3 MSTORE PUSH1 0x20 DUP3 ADD DUP2 SWAP1 MSTORE SWAP2 DUP2 ADD DUP3 SWAP1 MSTORE PUSH1 0x60 DUP2 ADD DUP3 SWAP1 MSTORE PUSH1 0x80 DUP2 ADD SWAP2 SWAP1 SWAP2 MSTORE PUSH20 0xFFFFFFFFFFFFFFFFFFFFFFFFFFFFFFFFFFFFFFFF DUP6 AND PUSH1 0x0 SWAP1 DUP2 MSTORE PUSH1 0x1 PUSH1 0x20 MSTORE PUSH1 0x40 DUP2 KECCAK256 DUP1 SLOAD PUSH2 0x351 SWAP1 PUSH2 0x2195 JUMP JUMPDEST DUP1 PUSH1 0x1F ADD PUSH1 0x20 DUP1 SWAP2 DIV MUL PUSH1 0x20 ADD PUSH1 0x40 MLOAD SWAP1 DUP2 ADD PUSH1 0x40 MSTORE DUP1 SWAP3 SWAP2 SWAP1 DUP2 DUP2 MSTORE PUSH1 0x20 ADD DUP3 DUP1 SLOAD PUSH2 0x37D SWAP1 PUSH2 0x2195 JUMP JUMPDEST DUP1 ISZERO PUSH2 0x3CA JUMPI DUP1 PUSH1 0x1F LT PUSH2 0x39F JUMPI PUSH2 0x100 DUP1 DUP4 SLOAD DIV MUL DUP4 MSTORE SWAP2 PUSH1 0x20 ADD SWAP2 PUSH2 0x3CA JUMP JUMPDEST DUP3 ADD SWAP2 SWAP1 PUSH1 0x0 MSTORE PUSH1 0x20 PUSH1 0x0 KECCAK256 SWAP1 JUMPDEST DUP2 SLOAD DUP2 MSTORE SWAP1 PUSH1 0x1 ADD SWAP1 PUSH1 0x20 ADD DUP1 DUP4 GT PUSH2 0x3AD JUMPI DUP3 SWAP1 SUB PUSH1 0x1F AND DUP3 ADD SWAP2 JUMPDEST POP POP POP POP POP SWAP1 POP PUSH2 0x3DA DUP2 PUSH2 0x3EA JUMP JUMPDEST SWAP5 POP SWAP5 POP SWAP5 POP SWAP5 POP POP SWAP2 SWAP4 POP SWAP2 SWAP4 JUMP JUMPDEST PUSH2 0x423 PUSH1 0x40 MLOAD DUP1 PUSH1 0xC0 ADD PUSH1 0x40 MSTORE DUP1 PUSH1 0x60 DUP2 MSTORE PUSH1 0x20 ADD PUSH1 0x60 DUP2 MSTORE PUSH1 0x20 ADD PUSH1 0x60 DUP2 MSTORE PUSH1 0x20 ADD PUSH1 0x60 DUP2 MSTORE PUSH1 0x20 ADD PUSH1 0x60 DUP2 MSTORE PUSH1 0x20 ADD PUSH1 0x60 DUP2 MSTORE POP SWAP1 JUMP JUMPDEST PUSH2 0x45C PUSH1 0x40 MLOAD DUP1 PUSH1 0xC0 ADD PUSH1 0x40 MSTORE DUP1 PUSH1 0x60 DUP2 MSTORE PUSH1 0x20 ADD PUSH1 0x60 DUP2 MSTORE PUSH1 0x20 ADD PUSH1 0x60 DUP2 MSTORE PUSH1 0x20 ADD PUSH1 0x60 DUP2 MSTORE PUSH1 0x20 ADD PUSH1 0x60 DUP2 MSTORE PUSH1 0x20 ADD PUSH1 0x60 DUP2 MSTORE POP SWAP1 JUMP JUMPDEST PUSH2 0x48E PUSH1 0x40 MLOAD DUP1 PUSH1 0xA0 ADD PUSH1 0x40 MSTORE DUP1 PUSH1 0x60 DUP2 MSTORE PUSH1 0x20 ADD PUSH1 0x60 DUP2 MSTORE PUSH1 0x20 ADD PUSH1 0x60 DUP2 MSTORE PUSH1 0x20 ADD PUSH1 0x60 DUP2 MSTORE PUSH1 0x20 ADD PUSH1 0x60 DUP2 MSTORE POP SWAP1 JUMP JUMPDEST PUSH1 0x40 DUP1 MLOAD PUSH1 0xA0 DUP2 ADD DUP3 MSTORE PUSH1 0x0 DUP1 DUP3 MSTORE PUSH1 0x20 DUP3 ADD DUP2 SWAP1 MSTORE SWAP2 DUP2 ADD DUP3 SWAP1 MSTORE PUSH1 0x60 DUP2 ADD DUP3 SWAP1 MSTORE PUSH1 0x80 DUP2 ADD SWAP2 SWAP1 SWAP2 MSTORE PUSH1 0x0 DUP6 PUSH1 0x40 MLOAD PUSH2 0x4C9 SWAP2 SWAP1 PUSH2 0x2179 JUMP JUMPDEST SWAP1 DUP2 MSTORE PUSH1 0x40 MLOAD SWAP1 DUP2 SWAP1 SUB PUSH1 0x20 ADD SWAP1 KECCAK256 PUSH1 0x12 ADD SLOAD PUSH1 0xFF AND PUSH2 0x522 JUMPI PUSH1 0x40 MLOAD PUSH3 0x461BCD PUSH1 0xE5 SHL DUP2 MSTORE PUSH1 0x20 PUSH1 0x4 DUP3 ADD MSTORE PUSH1 0x14 PUSH1 0x24 DUP3 ADD MSTORE PUSH20 0x2AB9B2B9103237B2B9903737BA1032BC34B9BA17 PUSH1 0x61 SHL PUSH1 0x44 DUP3 ADD MSTORE PUSH1 0x64 ADD PUSH2 0x1CC JUMP JUMPDEST PUSH1 0x0 DUP1 DUP7 PUSH1 0x40 MLOAD PUSH2 0x533 SWAP2 SWAP1 PUSH2 0x2179 JUMP JUMPDEST SWAP1 DUP2 MSTORE PUSH1 0x20 ADD PUSH1 0x40 MLOAD DUP1 SWAP2 SUB SWAP1 KECCAK256 SWAP1 POP PUSH1 0x40 MLOAD DUP1 PUSH1 0xC0 ADD PUSH1 0x40 MSTORE DUP1 DUP3 PUSH1 0x0 ADD DUP1 SLOAD PUSH2 0x55D SWAP1 PUSH2 0x2195 JUMP JUMPDEST DUP1 PUSH1 0x1F ADD PUSH1 0x20 DUP1 SWAP2 DIV MUL PUSH1 0x20 ADD PUSH1 0x40 MLOAD SWAP1 DUP2 ADD PUSH1 0x40 MSTORE DUP1 SWAP3 SWAP2 SWAP1 DUP2 DUP2 MSTORE PUSH1 0x20 ADD DUP3 DUP1 SLOAD PUSH2 0x589 SWAP1 PUSH2 0x2195 JUMP JUMPDEST DUP1 ISZERO PUSH2 0x5D6 JUMPI DUP1 PUSH1 0x1F LT PUSH2 0x5AB JUMPI PUSH2 0x100 DUP1 DUP4 SLOAD DIV MUL DUP4 MSTORE SWAP2 PUSH1 0x20 ADD SWAP2 PUSH2 0x5D6 JUMP JUMPDEST DUP3 ADD SWAP2 SWAP1 PUSH1 0x0 MSTORE PUSH1 0x20 PUSH1 0x0 KECCAK256 SWAP1 JUMPDEST DUP2 SLOAD DUP2 MSTORE SWAP1 PUSH1 0x1 ADD SWAP1 PUSH1 0x20 ADD DUP1 DUP4 GT PUSH2 0x5B9 JUMPI DUP3 SWAP1 SUB PUSH1 0x1F AND DUP3 ADD SWAP2 JUMPDEST POP POP POP POP POP DUP2 MSTORE PUSH1 0x20 ADD DUP3 PUSH1 0x1 ADD DUP1 SLOAD PUSH2 0x5EF SWAP1 PUSH2 0x2195 JUMP JUMPDEST DUP1 PUSH1 0x1F ADD PUSH1 0x20 DUP1 SWAP2 DIV MUL PUSH1 0x20 ADD PUSH1 0x40 MLOAD SWAP1 DUP2 ADD PUSH1 0x40 MSTORE DUP1 SWAP3 SWAP2 SWAP1 DUP2 DUP2 MSTORE PUSH1 0x20 ADD DUP3 DUP1 SLOAD PUSH2 0x61B SWAP1 PUSH2 0x2195 JUMP JUMPDEST DUP1 ISZERO PUSH2 0x668 JUMPI DUP1 PUSH1 0x1F LT PUSH2 0x63D JUMPI PUSH2 0x100 DUP1 DUP4 SLOAD DIV MUL DUP4 MSTORE SWAP2 PUSH1 0x20 ADD SWAP2 PUSH2 0x668 JUMP JUMPDEST DUP3 ADD SWAP2 SWAP1 PUSH1 0x0 MSTORE PUSH1 0x20 PUSH1 0x0 KECCAK256 SWAP1 JUMPDEST DUP2 SLOAD DUP2 MSTORE SWAP1 PUSH1 0x1 ADD SWAP1 PUSH1 0x20 ADD DUP1 DUP4 GT PUSH2 0x64B JUMPI DUP3 SWAP1 SUB PUSH1 0x1F AND DUP3 ADD SWAP2 JUMPDEST POP POP POP POP POP DUP2 MSTORE PUSH1 0x20 ADD DUP3 PUSH1 0x3 ADD DUP1 SLOAD PUSH2 0x681 SWAP1 PUSH2 0x2195 JUMP JUMPDEST DUP1 PUSH1 0x1F ADD PUSH1 0x20 DUP1 SWAP2 DIV MUL PUSH1 0x20 ADD PUSH1 0x40 MLOAD SWAP1 DUP2 ADD PUSH1 0x40 MSTORE DUP1 SWAP3 SWAP2 SWAP1 DUP2 DUP2 MSTORE PUSH1 0x20 ADD DUP3 DUP1 SLOAD PUSH2 0x6AD SWAP1 PUSH2 0x2195 JUMP JUMPDEST DUP1 ISZERO PUSH2 0x6FA JUMPI DUP1 PUSH1 0x1F LT PUSH2 0x6CF JUMPI PUSH2 0x100 DUP1 DUP4 SLOAD DIV MUL DUP4 MSTORE SWAP2 PUSH1 0x20 ADD SWAP2 PUSH2 0x6FA JUMP JUMPDEST DUP3 ADD SWAP2 SWAP1 PUSH1 0x0 MSTORE PUSH1 0x20 PUSH1 0x0 KECCAK256 SWAP1 JUMPDEST DUP2 SLOAD DUP2 MSTORE SWAP1 PUSH1 0x1 ADD SWAP1 PUSH1 0x20 ADD DUP1 DUP4 GT PUSH2 0x6DD JUMPI DUP3 SWAP1 SUB PUSH1 0x1F AND DUP3 ADD SWAP2 JUMPDEST POP POP POP POP POP DUP2 MSTORE PUSH1 0x20 ADD DUP3 PUSH1 0x4 ADD DUP1 SLOAD PUSH2 0x713 SWAP1 PUSH2 0x2195 JUMP JUMPDEST DUP1 PUSH1 0x1F ADD PUSH1 0x20 DUP1 SWAP2 DIV MUL PUSH1 0x20 ADD PUSH1 0x40 MLOAD SWAP1 DUP2 ADD PUSH1 0x40 MSTORE DUP1 SWAP3 SWAP2 SWAP1 DUP2 DUP2 MSTORE PUSH1 0x20 ADD DUP3 DUP1 SLOAD PUSH2 0x73F SWAP1 PUSH2 0x2195 JUMP JUMPDEST DUP1 ISZERO PUSH2 0x78C JUMPI DUP1 PUSH1 0x1F LT PUSH2 0x761 JUMPI PUSH2 0x100 DUP1 DUP4 SLOAD DIV MUL DUP4 MSTORE SWAP2 PUSH1 0x20 ADD SWAP2 PUSH2 0x78C JUMP JUMPDEST DUP3 ADD SWAP2 SWAP1 PUSH1 0x0 MSTORE PUSH1 0x20 PUSH1 0x0 KECCAK256 SWAP1 JUMPDEST DUP2 SLOAD DUP2 MSTORE SWAP1 PUSH1 0x1 ADD SWAP1 PUSH1 0x20 ADD DUP1 DUP4 GT PUSH2 0x76F JUMPI DUP3 SWAP1 SUB PUSH1 0x1F AND DUP3 ADD SWAP2 JUMPDEST POP POP POP POP POP DUP2 MSTORE PUSH1 0x20 ADD DUP3 PUSH1 0x5 ADD DUP1 SLOAD PUSH2 0x7A5 SWAP1 PUSH2 0x2195 JUMP JUMPDEST DUP1 PUSH1 0x1F ADD PUSH1 0x20 DUP1 SWAP2 DIV MUL PUSH1 0x20 ADD PUSH1 0x40 MLOAD SWAP1 DUP2 ADD PUSH1 0x40 MSTORE DUP1 SWAP3 SWAP2 SWAP1 DUP2 DUP2 MSTORE PUSH1 0x20 ADD DUP3 DUP1 SLOAD PUSH2 0x7D1 SWAP1 PUSH2 0x2195 JUMP JUMPDEST DUP1 ISZERO PUSH2 0x81E JUMPI DUP1 PUSH1 0x1F LT PUSH2 0x7F3 JUMPI PUSH2 0x100 DUP1 DUP4 SLOAD DIV MUL DUP4 MSTORE SWAP2 PUSH1 0x20 ADD SWAP2 PUSH2 0x81E JUMP JUMPDEST DUP3 ADD SWAP2 SWAP1 PUSH1 0x0 MSTORE PUSH1 0x20 PUSH1 0x0 KECCAK256 SWAP1 JUMPDEST DUP2 SLOAD DUP2 MSTORE SWAP1 PUSH1 0x1 ADD SWAP1 PUSH1 0x20 ADD DUP1 DUP4 GT PUSH2 0x801 JUMPI DUP3 SWAP1 SUB PUSH1 0x1F AND DUP3 ADD SWAP2 JUMPDEST POP POP POP POP POP DUP2 MSTORE PUSH1 0x20 ADD DUP3 PUSH1 0x8 ADD DUP1 SLOAD PUSH2 0x837 SWAP1 PUSH2 0x2195 JUMP JUMPDEST DUP1 PUSH1 0x1F ADD PUSH1 0x20 DUP1 SWAP2 DIV MUL PUSH1 0x20 ADD PUSH1 0x40 MLOAD SWAP1 DUP2 ADD PUSH1 0x40 MSTORE DUP1 SWAP3 SWAP2 SWAP1 DUP2 DUP2 MSTORE PUSH1 0x20 ADD DUP3 DUP1 SLOAD PUSH2 0x863 SWAP1 PUSH2 0x2195 JUMP JUMPDEST DUP1 ISZERO PUSH2 0x8B0 JUMPI DUP1 PUSH1 0x1F LT PUSH2 0x885 JUMPI PUSH2 0x100 DUP1 DUP4 SLOAD DIV MUL DUP4 MSTORE SWAP2 PUSH1 0x20 ADD SWAP2 PUSH2 0x8B0 JUMP JUMPDEST DUP3 ADD SWAP2 SWAP1 PUSH1 0x0 MSTORE PUSH1 0x20 PUSH1 0x0 KECCAK256 SWAP1 JUMPDEST DUP2 SLOAD DUP2 MSTORE SWAP1 PUSH1 0x1 ADD SWAP1 PUSH1 0x20 ADD DUP1 DUP4 GT PUSH2 0x893 JUMPI DUP3 SWAP1 SUB PUSH1 0x1F AND DUP3 ADD SWAP2 JUMPDEST POP POP POP POP POP DUP2 MSTORE POP SWAP5 POP PUSH1 0x40 MLOAD DUP1 PUSH1 0xC0 ADD PUSH1 0x40 MSTORE DUP1 DUP3 PUSH1 0x6 ADD DUP1 SLOAD PUSH2 0x8D4 SWAP1 PUSH2 0x2195 JUMP JUMPDEST DUP1 PUSH1 0x1F ADD PUSH1 0x20 DUP1 SWAP2 DIV MUL PUSH1 0x20 ADD PUSH1 0x40 MLOAD SWAP1 DUP2 ADD PUSH1 0x40 MSTORE DUP1 SWAP3 SWAP2 SWAP1 DUP2 DUP2 MSTORE PUSH1 0x20 ADD DUP3 DUP1 SLOAD PUSH2 0x900 SWAP1 PUSH2 0x2195 JUMP JUMPDEST DUP1 ISZERO PUSH2 0x94D JUMPI DUP1 PUSH1 0x1F LT PUSH2 0x922 JUMPI PUSH2 0x100 DUP1 DUP4 SLOAD DIV MUL DUP4 MSTORE SWAP2 PUSH1 0x20 ADD SWAP2 PUSH2 0x94D JUMP JUMPDEST DUP3 ADD SWAP2 SWAP1 PUSH1 0x0 MSTORE PUSH1 0x20 PUSH1 0x0 KECCAK256 SWAP1 JUMPDEST DUP2 SLOAD DUP2 MSTORE SWAP1 PUSH1 0x1 ADD SWAP1 PUSH1 0x20 ADD DUP1 DUP4 GT PUSH2 0x930 JUMPI DUP3 SWAP1 SUB PUSH1 0x1F AND DUP3 ADD SWAP2 JUMPDEST POP POP POP POP POP DUP2 MSTORE PUSH1 0x20 ADD DUP3 PUSH1 0x7 ADD DUP1 SLOAD PUSH2 0x966 SWAP1 PUSH2 0x2195 JUMP JUMPDEST DUP1 PUSH1 0x1F ADD PUSH1 0x20 DUP1 SWAP2 DIV MUL PUSH1 0x20 ADD PUSH1 0x40 MLOAD SWAP1 DUP2 ADD PUSH1 0x40 MSTORE DUP1 SWAP3 SWAP2 SWAP1 DUP2 DUP2 MSTORE PUSH1 0x20 ADD DUP3 DUP1 SLOAD PUSH2 0x992 SWAP1 PUSH2 0x2195 JUMP JUMPDEST DUP1 ISZERO PUSH2 0x9DF JUMPI DUP1 PUSH1 0x1F LT PUSH2 0x9B4 JUMPI PUSH2 0x100 DUP1 DUP4 SLOAD DIV MUL DUP4 MSTORE SWAP2 PUSH1 0x20 ADD SWAP2 PUSH2 0x9DF JUMP JUMPDEST DUP3 ADD SWAP2 SWAP1 PUSH1 0x0 MSTORE PUSH1 0x20 PUSH1 0x0 KECCAK256 SWAP1 JUMPDEST DUP2 SLOAD DUP2 MSTORE SWAP1 PUSH1 0x1 ADD SWAP1 PUSH1 0x20 ADD DUP1 DUP4 GT PUSH2 0x9C2 JUMPI DUP3 SWAP1 SUB PUSH1 0x1F AND DUP3 ADD SWAP2 JUMPDEST POP POP POP POP POP DUP2 MSTORE PUSH1 0x20 ADD DUP3 PUSH1 0x9 ADD DUP1 SLOAD PUSH2 0x9F8 SWAP1 PUSH2 0x2195 JUMP JUMPDEST DUP1 PUSH1 0x1F ADD PUSH1 0x20 DUP1 SWAP2 DIV MUL PUSH1 0x20 ADD PUSH1 0x40 MLOAD SWAP1 DUP2 ADD PUSH1 0x40 MSTORE DUP1 SWAP3 SWAP2 SWAP1 DUP2 DUP2 MSTORE PUSH1 0x20 ADD DUP3 DUP1 SLOAD PUSH2 0xA24 SWAP1 PUSH2 0x2195 JUMP JUMPDEST DUP1 ISZERO PUSH2 0xA71 JUMPI DUP1 PUSH1 0x1F LT PUSH2 0xA46 JUMPI PUSH2 0x100 DUP1 DUP4 SLOAD DIV MUL DUP4 MSTORE SWAP2 PUSH1 0x20 ADD SWAP2 PUSH2 0xA71 JUMP JUMPDEST DUP3 ADD SWAP2 SWAP1 PUSH1 0x0 MSTORE PUSH1 0x20 PUSH1 0x0 KECCAK256 SWAP1 JUMPDEST DUP2 SLOAD DUP2 MSTORE SWAP1 PUSH1 0x1 ADD SWAP1 PUSH1 0x20 ADD DUP1 DUP4 GT PUSH2 0xA54 JUMPI DUP3 SWAP1 SUB PUSH1 0x1F AND DUP3 ADD SWAP2 JUMPDEST POP POP POP POP POP DUP2 MSTORE PUSH1 0x20 ADD DUP3 PUSH1 0xF ADD DUP1 SLOAD PUSH2 0xA8A SWAP1 PUSH2 0x2195 JUMP JUMPDEST DUP1 PUSH1 0x1F ADD PUSH1 0x20 DUP1 SWAP2 DIV MUL PUSH1 0x20 ADD PUSH1 0x40 MLOAD SWAP1 DUP2 ADD PUSH1 0x40 MSTORE DUP1 SWAP3 SWAP2 SWAP1 DUP2 DUP2 MSTORE PUSH1 0x20 ADD DUP3 DUP1 SLOAD PUSH2 0xAB6 SWAP1 PUSH2 0x2195 JUMP JUMPDEST DUP1 ISZERO PUSH2 0xB03 JUMPI DUP1 PUSH1 0x1F LT PUSH2 0xAD8 JUMPI PUSH2 0x100 DUP1 DUP4 SLOAD DIV MUL DUP4 MSTORE SWAP2 PUSH1 0x20 ADD SWAP2 PUSH2 0xB03 JUMP JUMPDEST DUP3 ADD SWAP2 SWAP1 PUSH1 0x0 MSTORE PUSH1 0x20 PUSH1 0x0 KECCAK256 SWAP1 JUMPDEST DUP2 SLOAD DUP2 MSTORE SWAP1 PUSH1 0x1 ADD SWAP1 PUSH1 0x20 ADD DUP1 DUP4 GT PUSH2 0xAE6 JUMPI DUP3 SWAP1 SUB PUSH1 0x1F AND DUP3 ADD SWAP2 JUMPDEST POP POP POP POP POP DUP2 MSTORE PUSH1 0x20 ADD DUP3 PUSH1 0x10 ADD DUP1 SLOAD DUP1 PUSH1 0x20 MUL PUSH1 0x20 ADD PUSH1 0x40 MLOAD SWAP1 DUP2 ADD PUSH1 0x40 MSTORE DUP1 SWAP3 SWAP2 SWAP1 DUP2 DUP2 MSTORE PUSH1 0x20 ADD PUSH1 0x0 SWAP1 JUMPDEST DUP3 DUP3 LT ISZERO PUSH2 0xBDD JUMPI DUP4 DUP3 SWAP1 PUSH1 0x0 MSTORE PUSH1 0x20 PUSH1 0x0 KECCAK256 ADD DUP1 SLOAD PUSH2 0xB50 SWAP1 PUSH2 0x2195 JUMP JUMPDEST DUP1 PUSH1 0x1F ADD PUSH1 0x20 DUP1 SWAP2 DIV MUL PUSH1 0x20 ADD PUSH1 0x40 MLOAD SWAP1 DUP2 ADD PUSH1 0x40 MSTORE DUP1 SWAP3 SWAP2 SWAP1 DUP2 DUP2 MSTORE PUSH1 0x20 ADD DUP3 DUP1 SLOAD PUSH2 0xB7C SWAP1 PUSH2 0x2195 JUMP JUMPDEST DUP1 ISZERO PUSH2 0xBC9 JUMPI DUP1 PUSH1 0x1F LT PUSH2 0xB9E JUMPI PUSH2 0x100 DUP1 DUP4 SLOAD DIV MUL DUP4 MSTORE SWAP2 PUSH1 0x20 ADD SWAP2 PUSH2 0xBC9 JUMP JUMPDEST DUP3 ADD SWAP2 SWAP1 PUSH1 0x0 MSTORE PUSH1 0x20 PUSH1 0x0 KECCAK256 SWAP1 JUMPDEST DUP2 SLOAD DUP2 MSTORE SWAP1 PUSH1 0x1 ADD SWAP1 PUSH1 0x20 ADD DUP1 DUP4 GT PUSH2 0xBAC JUMPI DUP3 SWAP1 SUB PUSH1 0x1F AND DUP3 ADD SWAP2 JUMPDEST POP POP POP POP POP DUP2 MSTORE PUSH1 0x20 ADD SWAP1 PUSH1 0x1 ADD SWAP1 PUSH2 0xB31 JUMP JUMPDEST POP POP POP POP DUP2 MSTORE PUSH1 0x20 ADD DUP3 PUSH1 0x11 ADD DUP1 SLOAD PUSH2 0xBF5 SWAP1 PUSH2 0x2195 JUMP JUMPDEST DUP1 PUSH1 0x1F ADD PUSH1 0x20 DUP1 SWAP2 DIV MUL PUSH1 0x20 ADD PUSH1 0x40 MLOAD SWAP1 DUP2 ADD PUSH1 0x40 MSTORE DUP1 SWAP3 SWAP2 SWAP1 DUP2 DUP2 MSTORE PUSH1 0x20 ADD DUP3 DUP1 SLOAD PUSH2 0xC21 SWAP1 PUSH2 0x2195 JUMP JUMPDEST DUP1 ISZERO PUSH2 0xC6E JUMPI DUP1 PUSH1 0x1F LT PUSH2 0xC43 JUMPI PUSH2 0x100 DUP1 DUP4 SLOAD DIV MUL DUP4 MSTORE SWAP2 PUSH1 0x20 ADD SWAP2 PUSH2 0xC6E JUMP JUMPDEST DUP3 ADD SWAP2 SWAP1 PUSH1 0x0 MSTORE PUSH1 0x20 PUSH1 0x0 KECCAK256 SWAP1 JUMPDEST DUP2 SLOAD DUP2 MSTORE SWAP1 PUSH1 0x1 ADD SWAP1 PUSH1 0x20 ADD DUP1 DUP4 GT PUSH2 0xC51 JUMPI DUP3 SWAP1 SUB PUSH1 0x1F AND DUP3 ADD SWAP2 JUMPDEST POP POP POP POP POP DUP2 MSTORE POP SWAP4 POP PUSH1 0x40 MLOAD DUP1 PUSH1 0xA0 ADD PUSH1 0x40 MSTORE DUP1 DUP3 PUSH1 0xA ADD DUP1 SLOAD PUSH2 0xC92 SWAP1 PUSH2 0x2195 JUMP JUMPDEST DUP1 PUSH1 0x1F ADD PUSH1 0x20 DUP1 SWAP2 DIV MUL PUSH1 0x20 ADD PUSH1 0x40 MLOAD SWAP1 DUP2 ADD PUSH1 0x40 MSTORE DUP1 SWAP3 SWAP2 SWAP1 DUP2 DUP2 MSTORE PUSH1 0x20 ADD DUP3 DUP1 SLOAD PUSH2 0xCBE SWAP1 PUSH2 0x2195 JUMP JUMPDEST DUP1 ISZERO PUSH2 0xD0B JUMPI DUP1 PUSH1 0x1F LT PUSH2 0xCE0 JUMPI PUSH2 0x100 DUP1 DUP4 SLOAD DIV MUL DUP4 MSTORE SWAP2 PUSH1 0x20 ADD SWAP2 PUSH2 0xD0B JUMP JUMPDEST DUP3 ADD SWAP2 SWAP1 PUSH1 0x0 MSTORE PUSH1 0x20 PUSH1 0x0 KECCAK256 SWAP1 JUMPDEST DUP2 SLOAD DUP2 MSTORE SWAP1 PUSH1 0x1 ADD SWAP1 PUSH1 0x20 ADD DUP1 DUP4 GT PUSH2 0xCEE JUMPI DUP3 SWAP1 SUB PUSH1 0x1F AND DUP3 ADD SWAP2 JUMPDEST POP POP POP POP POP DUP2 MSTORE PUSH1 0x20 ADD DUP3 PUSH1 0xB ADD DUP1 SLOAD PUSH2 0xD24 SWAP1 PUSH2 0x2195 JUMP JUMPDEST DUP1 PUSH1 0x1F ADD PUSH1 0x20 DUP1 SWAP2 DIV MUL PUSH1 0x20 ADD PUSH1 0x40 MLOAD SWAP1 DUP2 ADD PUSH1 0x40 MSTORE DUP1 SWAP3 SWAP2 SWAP1 DUP2 DUP2 MSTORE PUSH1 0x20 ADD DUP3 DUP1 SLOAD PUSH2 0xD50 SWAP1 PUSH2 0x2195 JUMP JUMPDEST DUP1 ISZERO PUSH2 0xD9D JUMPI DUP1 PUSH1 0x1F LT PUSH2 0xD72 JUMPI PUSH2 0x100 DUP1 DUP4 SLOAD DIV MUL DUP4 MSTORE SWAP2 PUSH1 0x20 ADD SWAP2 PUSH2 0xD9D JUMP JUMPDEST DUP3 ADD SWAP2 SWAP1 PUSH1 0x0 MSTORE PUSH1 0x20 PUSH1 0x0 KECCAK256 SWAP1 JUMPDEST DUP2 SLOAD DUP2 MSTORE SWAP1 PUSH1 0x1 ADD SWAP1 PUSH1 0x20 ADD DUP1 DUP4 GT PUSH2 0xD80 JUMPI DUP3 SWAP1 SUB PUSH1 0x1F AND DUP3 ADD SWAP2 JUMPDEST POP POP POP POP POP DUP2 MSTORE PUSH1 0x20 ADD DUP3 PUSH1 0xC ADD DUP1 SLOAD PUSH2 0xDB6 SWAP1 PUSH2 0x2195 JUMP JUMPDEST DUP1 PUSH1 0x1F ADD PUSH1 0x20 DUP1 SWAP2 DIV MUL PUSH1 0x20 ADD PUSH1 0x40 MLOAD SWAP1 DUP2 ADD PUSH1 0x40 MSTORE DUP1 SWAP3 SWAP2 SWAP1 DUP2 DUP2 MSTORE PUSH1 0x20 ADD DUP3 DUP1 SLOAD PUSH2 0xDE2 SWAP1 PUSH2 0x2195 JUMP JUMPDEST DUP1 ISZERO PUSH2 0xE2F JUMPI DUP1 PUSH1 0x1F LT PUSH2 0xE04 JUMPI PUSH2 0x100 DUP1 DUP4 SLOAD DIV MUL DUP4 MSTORE SWAP2 PUSH1 0x20 ADD SWAP2 PUSH2 0xE2F JUMP JUMPDEST DUP3 ADD SWAP2 SWAP1 PUSH1 0x0 MSTORE PUSH1 0x20 PUSH1 0x0 KECCAK256 SWAP1 JUMPDEST DUP2 SLOAD DUP2 MSTORE SWAP1 PUSH1 0x1 ADD SWAP1 PUSH1 0x20 ADD DUP1 DUP4 GT PUSH2 0xE12 JUMPI DUP3 SWAP1 SUB PUSH1 0x1F AND DUP3 ADD SWAP2 JUMPDEST POP POP POP POP POP DUP2 MSTORE PUSH1 0x20 ADD DUP3 PUSH1 0xD ADD DUP1 SLOAD PUSH2 0xE48 SWAP1 PUSH2 0x2195 JUMP JUMPDEST DUP1 PUSH1 0x1F ADD PUSH1 0x20 DUP1 SWAP2 DIV MUL PUSH1 0x20 ADD PUSH1 0x40 MLOAD SWAP1 DUP2 ADD PUSH1 0x40 MSTORE DUP1 SWAP3 SWAP2 SWAP1 DUP2 DUP2 MSTORE PUSH1 0x20 ADD DUP3 DUP1 SLOAD PUSH2 0xE74 SWAP1 PUSH2 0x2195 JUMP JUMPDEST DUP1 ISZERO PUSH2 0xEC1 JUMPI DUP1 PUSH1 0x1F LT PUSH2 0xE96 JUMPI PUSH2 0x100 DUP1 DUP4 SLOAD DIV MUL DUP4 MSTORE SWAP2 PUSH1 0x20 ADD SWAP2 PUSH2 0xEC1 JUMP JUMPDEST DUP3 ADD SWAP2 SWAP1 PUSH1 0x0 MSTORE PUSH1 0x20 PUSH1 0x0 KECCAK256 SWAP1 JUMPDEST DUP2 SLOAD DUP2 MSTORE SWAP1 PUSH1 0x1 ADD SWAP1 PUSH1 0x20 ADD DUP1 DUP4 GT PUSH2 0xEA4 JUMPI DUP3 SWAP1 SUB PUSH1 0x1F AND DUP3 ADD SWAP2 JUMPDEST POP POP POP POP POP DUP2 MSTORE PUSH1 0x20 ADD DUP3 PUSH1 0xE ADD DUP1 SLOAD PUSH2 0xEDA SWAP1 PUSH2 0x2195 JUMP JUMPDEST DUP1 PUSH1 0x1F ADD PUSH1 0x20 DUP1 SWAP2 DIV MUL PUSH1 0x20 ADD PUSH1 0x40 MLOAD SWAP1 DUP2 ADD PUSH1 0x40 MSTORE DUP1 SWAP3 SWAP2 SWAP1 DUP2 DUP2 MSTORE PUSH1 0x20 ADD DUP3 DUP1 SLOAD PUSH2 0xF06 SWAP1 PUSH2 0x2195 JUMP JUMPDEST DUP1 ISZERO PUSH2 0xF53 JUMPI DUP1 PUSH1 0x1F LT PUSH2 0xF28 JUMPI PUSH2 0x100 DUP1 DUP4 SLOAD DIV MUL DUP4 MSTORE SWAP2 PUSH1 0x20 ADD SWAP2 PUSH2 0xF53 JUMP JUMPDEST DUP3 ADD SWAP2 SWAP1 PUSH1 0x0 MSTORE PUSH1 0x20 PUSH1 0x0 KECCAK256 SWAP1 JUMPDEST DUP2 SLOAD DUP2 MSTORE SWAP1 PUSH1 0x1 ADD SWAP1 PUSH1 0x20 ADD DUP1 DUP4 GT PUSH2 0xF36 JUMPI DUP3 SWAP1 SUB PUSH1 0x1F AND DUP3 ADD SWAP2 JUMPDEST POP POP POP SWAP2 SWAP1 SWAP3 MSTORE POP POP PUSH1 0x40 DUP1 MLOAD PUSH1 0xA0 DUP2 ADD DUP3 MSTORE PUSH1 0x14 SWAP1 SWAP4 ADD SLOAD PUSH1 0xFF DUP1 DUP3 AND ISZERO ISZERO DUP6 MSTORE PUSH2 0x100 DUP3 DIV DUP2 AND ISZERO ISZERO PUSH1 0x20 DUP7 ADD MSTORE PUSH3 0x10000 DUP3 DIV DUP2 AND ISZERO ISZERO SWAP3 DUP6 ADD SWAP3 SWAP1 SWAP3 MSTORE PUSH4 0x1000000 DUP2 DIV DUP3 AND ISZERO ISZERO PUSH1 0x60 DUP6 ADD MSTORE PUSH5 0x100000000 SWAP1 DIV AND ISZERO ISZERO PUSH1 0x80 DUP4 ADD MSTORE SWAP3 POP SWAP1 POP SWAP2 SWAP4 POP SWAP2 SWAP4 JUMP JUMPDEST DUP5 PUSH1 0x2 DUP2 PUSH1 0x40 MLOAD PUSH2 0xFD0 SWAP2 SWAP1 PUSH2 0x2179 JUMP JUMPDEST SWAP1 DUP2 MSTORE PUSH1 0x40 MLOAD SWAP1 DUP2 SWAP1 SUB PUSH1 0x20 ADD SWAP1 KECCAK256 SLOAD PUSH1 0xFF AND ISZERO PUSH2 0x1030 JUMPI PUSH1 0x40 MLOAD PUSH3 0x461BCD PUSH1 0xE5 SHL DUP2 MSTORE PUSH1 0x20 PUSH1 0x4 DUP3 ADD MSTORE PUSH1 0x18 PUSH1 0x24 DUP3 ADD MSTORE PUSH32 0x557365726E616D6520616C7265616479206578697374732E0000000000000000 PUSH1 0x44 DUP3 ADD MSTORE PUSH1 0x64 ADD PUSH2 0x1CC JUMP JUMPDEST PUSH1 0x0 DUP1 DUP8 PUSH1 0x40 MLOAD PUSH2 0x1041 SWAP2 SWAP1 PUSH2 0x2179 JUMP JUMPDEST SWAP1 DUP2 MSTORE PUSH1 0x40 MLOAD SWAP1 DUP2 SWAP1 SUB PUSH1 0x20 ADD SWAP1 KECCAK256 DUP7 MLOAD SWAP1 SWAP2 POP DUP2 SWAP1 PUSH2 0x1061 SWAP1 DUP3 PUSH2 0x2220 JUMP JUMPDEST POP PUSH1 0x20 DUP7 ADD MLOAD PUSH1 0x1 DUP3 ADD SWAP1 PUSH2 0x1076 SWAP1 DUP3 PUSH2 0x2220 JUMP JUMPDEST POP PUSH1 0x2 DUP2 ADD PUSH2 0x1085 DUP9 DUP3 PUSH2 0x2220 JUMP JUMPDEST POP PUSH1 0x40 DUP7 ADD MLOAD PUSH1 0x3 DUP3 ADD SWAP1 PUSH2 0x109A SWAP1 DUP3 PUSH2 0x2220 JUMP JUMPDEST POP PUSH1 0x60 DUP7 ADD MLOAD PUSH1 0x4 DUP3 ADD SWAP1 PUSH2 0x10AF SWAP1 DUP3 PUSH2 0x2220 JUMP JUMPDEST POP PUSH1 0x80 DUP7 ADD MLOAD PUSH1 0x5 DUP3 ADD SWAP1 PUSH2 0x10C4 SWAP1 DUP3 PUSH2 0x2220 JUMP JUMPDEST POP PUSH1 0xA0 DUP7 ADD MLOAD PUSH1 0x8 DUP3 ADD SWAP1 PUSH2 0x10D9 SWAP1 DUP3 PUSH2 0x2220 JUMP JUMPDEST POP DUP5 MLOAD PUSH1 0x6 DUP3 ADD SWAP1 PUSH2 0x10EB SWAP1 DUP3 PUSH2 0x2220 JUMP JUMPDEST POP PUSH1 0x20 DUP6 ADD MLOAD PUSH1 0x7 DUP3 ADD SWAP1 PUSH2 0x1100 SWAP1 DUP3 PUSH2 0x2220 JUMP JUMPDEST POP PUSH1 0x40 DUP6 ADD MLOAD PUSH1 0x9 DUP3 ADD SWAP1 PUSH2 0x1115 SWAP1 DUP3 PUSH2 0x2220 JUMP JUMPDEST POP DUP4 MLOAD PUSH1 0xA DUP3 ADD SWAP1 PUSH2 0x1127 SWAP1 DUP3 PUSH2 0x2220 JUMP JUMPDEST POP PUSH1 0x20 DUP5 ADD MLOAD PUSH1 0xB DUP3 ADD SWAP1 PUSH2 0x113C SWAP1 DUP3 PUSH2 0x2220 JUMP JUMPDEST POP PUSH1 0x40 DUP5 ADD MLOAD PUSH1 0xC DUP3 ADD SWAP1 PUSH2 0x1151 SWAP1 DUP3 PUSH2 0x2220 JUMP JUMPDEST POP PUSH1 0x60 DUP5 ADD MLOAD PUSH1 0xD DUP3 ADD SWAP1 PUSH2 0x1166 SWAP1 DUP3 PUSH2 0x2220 JUMP JUMPDEST POP PUSH1 0x80 DUP5 ADD MLOAD PUSH1 0xE DUP3 ADD SWAP1 PUSH2 0x117B SWAP1 DUP3 PUSH2 0x2220 JUMP JUMPDEST POP PUSH1 0x60 DUP6 ADD MLOAD PUSH1 0xF DUP3 ADD SWAP1 PUSH2 0x1190 SWAP1 DUP3 PUSH2 0x2220 JUMP JUMPDEST POP PUSH1 0x80 DUP6 ADD MLOAD DUP1 MLOAD PUSH2 0x11AC SWAP2 PUSH1 0x10 DUP5 ADD SWAP2 PUSH1 0x20 SWAP1 SWAP2 ADD SWAP1 PUSH2 0x16C8 JUMP JUMPDEST POP PUSH1 0xA0 DUP6 ADD MLOAD PUSH1 0x11 DUP3 ADD SWAP1 PUSH2 0x11C1 SWAP1 DUP3 PUSH2 0x2220 JUMP JUMPDEST POP PUSH1 0x12 DUP2 ADD DUP1 SLOAD PUSH1 0xFF NOT AND PUSH1 0x1 SWAP1 DUP2 OR SWAP1 SWAP2 SSTORE DUP4 MLOAD PUSH1 0x14 DUP4 ADD DUP1 SLOAD PUSH1 0x20 DUP8 ADD MLOAD PUSH1 0x40 DUP1 DUP10 ADD MLOAD PUSH1 0x60 DUP11 ADD MLOAD PUSH1 0x80 DUP12 ADD MLOAD ISZERO ISZERO PUSH5 0x100000000 MUL PUSH5 0xFF00000000 NOT SWAP2 ISZERO ISZERO PUSH4 0x1000000 MUL PUSH4 0xFF000000 NOT SWAP4 ISZERO ISZERO PUSH3 0x10000 MUL SWAP4 SWAP1 SWAP4 AND PUSH4 0xFFFF0000 NOT SWAP6 ISZERO ISZERO PUSH2 0x100 MUL PUSH2 0xFF00 NOT SWAP10 ISZERO ISZERO SWAP10 SWAP1 SWAP10 AND PUSH2 0xFFFF NOT SWAP1 SWAP8 AND SWAP7 SWAP1 SWAP7 OR SWAP8 SWAP1 SWAP8 OR SWAP4 SWAP1 SWAP4 AND SWAP4 SWAP1 SWAP4 OR SWAP3 SWAP1 SWAP3 OR AND SWAP3 SWAP1 SWAP3 OR SWAP1 SSTORE MLOAD PUSH1 0x2 SWAP1 PUSH2 0x1265 SWAP1 DUP11 SWAP1 PUSH2 0x2179 JUMP JUMPDEST SWAP1 DUP2 MSTORE PUSH1 0x40 DUP1 MLOAD PUSH1 0x20 SWAP3 DUP2 SWAP1 SUB DUP4 ADD SWAP1 KECCAK256 DUP1 SLOAD PUSH1 0xFF NOT AND SWAP4 ISZERO ISZERO SWAP4 SWAP1 SWAP4 OR SWAP1 SWAP3 SSTORE CALLER PUSH1 0x0 SWAP1 DUP2 MSTORE PUSH1 0x1 SWAP1 SWAP2 MSTORE KECCAK256 PUSH2 0x129C DUP9 DUP3 PUSH2 0x2220 JUMP JUMPDEST POP POP POP POP POP POP POP POP JUMP JUMPDEST PUSH1 0x0 DUP7 PUSH1 0x40 MLOAD PUSH2 0x12B6 SWAP2 SWAP1 PUSH2 0x2179 JUMP JUMPDEST SWAP1 DUP2 MSTORE PUSH1 0x40 MLOAD SWAP1 DUP2 SWAP1 SUB PUSH1 0x20 ADD SWAP1 KECCAK256 PUSH1 0x12 ADD SLOAD PUSH1 0xFF AND PUSH2 0x130F JUMPI PUSH1 0x40 MLOAD PUSH3 0x461BCD PUSH1 0xE5 SHL DUP2 MSTORE PUSH1 0x20 PUSH1 0x4 DUP3 ADD MSTORE PUSH1 0x14 PUSH1 0x24 DUP3 ADD MSTORE PUSH20 0x2AB9B2B9103237B2B9903737BA1032BC34B9BA17 PUSH1 0x61 SHL PUSH1 0x44 DUP3 ADD MSTORE PUSH1 0x64 ADD PUSH2 0x1CC JUMP JUMPDEST PUSH1 0x0 DUP1 DUP8 PUSH1 0x40 MLOAD PUSH2 0x1320 SWAP2 SWAP1 PUSH2 0x2179 JUMP JUMPDEST SWAP1 DUP2 MSTORE PUSH1 0x40 MLOAD PUSH1 0x20 SWAP2 DUP2 SWAP1 SUB SWAP2 SWAP1 SWAP2 ADD SWAP1 KECCAK256 PUSH1 0x14 ADD DUP1 SLOAD PUSH2 0xFFFF NOT AND SWAP7 ISZERO ISZERO PUSH2 0xFF00 NOT AND SWAP7 SWAP1 SWAP7 OR PUSH2 0x100 SWAP6 ISZERO ISZERO SWAP6 SWAP1 SWAP6 MUL SWAP5 SWAP1 SWAP5 OR PUSH4 0xFFFF0000 NOT AND PUSH3 0x10000 SWAP4 ISZERO ISZERO SWAP4 SWAP1 SWAP4 MUL PUSH4 0xFF000000 NOT AND SWAP3 SWAP1 SWAP3 OR PUSH4 0x1000000 SWAP2 ISZERO ISZERO SWAP2 SWAP1 SWAP2 MUL OR PUSH5 0xFF00000000 NOT AND PUSH5 0x100000000 SWAP2 ISZERO ISZERO SWAP2 SWAP1 SWAP2 MUL OR SWAP1 SWAP2 SSTORE POP POP JUMP JUMPDEST PUSH20 0xFFFFFFFFFFFFFFFFFFFFFFFFFFFFFFFFFFFFFFFF DUP2 AND PUSH1 0x0 SWAP1 DUP2 MSTORE PUSH1 0x1 PUSH1 0x20 MSTORE PUSH1 0x40 SWAP1 KECCAK256 DUP1 SLOAD PUSH1 0x60 SWAP2 SWAP1 PUSH2 0x13D1 SWAP1 PUSH2 0x2195 JUMP JUMPDEST DUP1 PUSH1 0x1F ADD PUSH1 0x20 DUP1 SWAP2 DIV MUL PUSH1 0x20 ADD PUSH1 0x40 MLOAD SWAP1 DUP2 ADD PUSH1 0x40 MSTORE DUP1 SWAP3 SWAP2 SWAP1 DUP2 DUP2 MSTORE PUSH1 0x20 ADD DUP3 DUP1 SLOAD PUSH2 0x13FD SWAP1 PUSH2 0x2195 JUMP JUMPDEST DUP1 ISZERO PUSH2 0x144A JUMPI DUP1 PUSH1 0x1F LT PUSH2 0x141F JUMPI PUSH2 0x100 DUP1 DUP4 SLOAD DIV MUL DUP4 MSTORE SWAP2 PUSH1 0x20 ADD SWAP2 PUSH2 0x144A JUMP JUMPDEST DUP3 ADD SWAP2 SWAP1 PUSH1 0x0 MSTORE PUSH1 0x20 PUSH1 0x0 KECCAK256 SWAP1 JUMPDEST DUP2 SLOAD DUP2 MSTORE SWAP1 PUSH1 0x1 ADD SWAP1 PUSH1 0x20 ADD DUP1 DUP4 GT PUSH2 0x142D JUMPI DUP3 SWAP1 SUB PUSH1 0x1F AND DUP3 ADD SWAP2 JUMPDEST POP POP POP POP POP SWAP1 POP SWAP2 SWAP1 POP JUMP JUMPDEST PUSH1 0x0 DUP6 PUSH1 0x40 MLOAD PUSH2 0x1466 SWAP2 SWAP1 PUSH2 0x2179 JUMP JUMPDEST SWAP1 DUP2 MSTORE PUSH1 0x40 MLOAD SWAP1 DUP2 SWAP1 SUB PUSH1 0x20 ADD SWAP1 KECCAK256 PUSH1 0x12 ADD SLOAD PUSH1 0xFF AND PUSH2 0x14BF JUMPI PUSH1 0x40 MLOAD PUSH3 0x461BCD PUSH1 0xE5 SHL DUP2 MSTORE PUSH1 0x20 PUSH1 0x4 DUP3 ADD MSTORE PUSH1 0x14 PUSH1 0x24 DUP3 ADD MSTORE PUSH20 0x2AB9B2B9103237B2B9903737BA1032BC34B9BA17 PUSH1 0x61 SHL PUSH1 0x44 DUP3 ADD MSTORE PUSH1 0x64 ADD PUSH2 0x1CC JUMP JUMPDEST PUSH1 0x0 DUP1 DUP7 PUSH1 0x40 MLOAD PUSH2 0x14D0 SWAP2 SWAP1 PUSH2 0x2179 JUMP JUMPDEST SWAP1 DUP2 MSTORE PUSH1 0x40 MLOAD SWAP1 DUP2 SWAP1 SUB PUSH1 0x20 ADD SWAP1 KECCAK256 DUP6 MLOAD SWAP1 SWAP2 POP DUP2 SWAP1 PUSH2 0x14F0 SWAP1 DUP3 PUSH2 0x2220 JUMP JUMPDEST POP PUSH1 0x20 DUP6 ADD MLOAD PUSH1 0x1 DUP3 ADD SWAP1 PUSH2 0x1505 SWAP1 DUP3 PUSH2 0x2220 JUMP JUMPDEST POP PUSH1 0x40 DUP6 ADD MLOAD PUSH1 0x3 DUP3 ADD SWAP1 PUSH2 0x151A SWAP1 DUP3 PUSH2 0x2220 JUMP JUMPDEST POP PUSH1 0x60 DUP6 ADD MLOAD PUSH1 0x4 DUP3 ADD SWAP1 PUSH2 0x152F SWAP1 DUP3 PUSH2 0x2220 JUMP JUMPDEST POP PUSH1 0x80 DUP6 ADD MLOAD PUSH1 0x5 DUP3 ADD SWAP1 PUSH2 0x1544 SWAP1 DUP3 PUSH2 0x2220 JUMP JUMPDEST POP PUSH1 0xA0 DUP6 ADD MLOAD PUSH1 0x8 DUP3 ADD SWAP1 PUSH2 0x1559 SWAP1 DUP3 PUSH2 0x2220 JUMP JUMPDEST POP DUP4 MLOAD PUSH1 0x6 DUP3 ADD SWAP1 PUSH2 0x156B SWAP1 DUP3 PUSH2 0x2220 JUMP JUMPDEST POP PUSH1 0x20 DUP5 ADD MLOAD PUSH1 0x7 DUP3 ADD SWAP1 PUSH2 0x1580 SWAP1 DUP3 PUSH2 0x2220 JUMP JUMPDEST POP PUSH1 0x40 DUP5 ADD MLOAD PUSH1 0x9 DUP3 ADD SWAP1 PUSH2 0x1595 SWAP1 DUP3 PUSH2 0x2220 JUMP JUMPDEST POP DUP3 MLOAD PUSH1 0xA DUP3 ADD SWAP1 PUSH2 0x15A7 SWAP1 DUP3 PUSH2 0x2220 JUMP JUMPDEST POP PUSH1 0x20 DUP4 ADD MLOAD PUSH1 0xB DUP3 ADD SWAP1 PUSH2 0x15BC SWAP1 DUP3 PUSH2 0x2220 JUMP JUMPDEST POP PUSH1 0x40 DUP4 ADD MLOAD PUSH1 0xC DUP3 ADD SWAP1 PUSH2 0x15D1 SWAP1 DUP3 PUSH2 0x2220 JUMP JUMPDEST POP PUSH1 0x60 DUP4 ADD MLOAD PUSH1 0xD DUP3 ADD SWAP1 PUSH2 0x15E6 SWAP1 DUP3 PUSH2 0x2220 JUMP JUMPDEST POP PUSH1 0x80 DUP4 ADD MLOAD PUSH1 0xE DUP3 ADD SWAP1 PUSH2 0x15FB SWAP1 DUP3 PUSH2 0x2220 JUMP JUMPDEST POP PUSH1 0x60 DUP5 ADD MLOAD PUSH1 0xF DUP3 ADD SWAP1 PUSH2 0x1610 SWAP1 DUP3 PUSH2 0x2220 JUMP JUMPDEST POP PUSH1 0x80 DUP5 ADD MLOAD DUP1 MLOAD PUSH2 0x162C SWAP2 PUSH1 0x10 DUP5 ADD SWAP2 PUSH1 0x20 SWAP1 SWAP2 ADD SWAP1 PUSH2 0x16C8 JUMP JUMPDEST POP PUSH1 0xA0 DUP5 ADD MLOAD PUSH1 0x11 DUP3 ADD SWAP1 PUSH2 0x1641 SWAP1 DUP3 PUSH2 0x2220 JUMP JUMPDEST POP DUP2 MLOAD PUSH1 0x14 SWAP1 SWAP2 ADD DUP1 SLOAD PUSH1 0x20 DUP5 ADD MLOAD PUSH1 0x40 DUP6 ADD MLOAD PUSH1 0x60 DUP7 ADD MLOAD PUSH1 0x80 SWAP1 SWAP7 ADD MLOAD ISZERO ISZERO PUSH5 0x100000000 MUL PUSH5 0xFF00000000 NOT SWAP7 ISZERO ISZERO PUSH4 0x1000000 MUL PUSH4 0xFF000000 NOT SWAP3 ISZERO ISZERO PUSH3 0x10000 MUL SWAP3 SWAP1 SWAP3 AND PUSH4 0xFFFF0000 NOT SWAP4 ISZERO ISZERO PUSH2 0x100 MUL PUSH2 0xFF00 NOT SWAP8 ISZERO ISZERO SWAP8 SWAP1 SWAP8 AND PUSH2 0xFFFF NOT SWAP1 SWAP6 AND SWAP5 SWAP1 SWAP5 OR SWAP6 SWAP1 SWAP6 OR SWAP2 SWAP1 SWAP2 AND SWAP2 SWAP1 SWAP2 OR OR SWAP3 SWAP1 SWAP3 AND OR SWAP1 SSTORE POP POP POP POP JUMP JUMPDEST DUP3 DUP1 SLOAD DUP3 DUP3 SSTORE SWAP1 PUSH1 0x0 MSTORE PUSH1 0x20 PUSH1 0x0 KECCAK256 SWAP1 DUP2 ADD SWAP3 DUP3 ISZERO PUSH2 0x170E JUMPI SWAP2 PUSH1 0x20 MUL DUP3 ADD JUMPDEST DUP3 DUP2 GT ISZERO PUSH2 0x170E JUMPI DUP3 MLOAD DUP3 SWAP1 PUSH2 0x16FE SWAP1 DUP3 PUSH2 0x2220 JUMP JUMPDEST POP SWAP2 PUSH1 0x20 ADD SWAP2 SWAP1 PUSH1 0x1 ADD SWAP1 PUSH2 0x16E8 JUMP JUMPDEST POP PUSH2 0x171A SWAP3 SWAP2 POP PUSH2 0x171E JUMP JUMPDEST POP SWAP1 JUMP JUMPDEST DUP1 DUP3 GT ISZERO PUSH2 0x171A JUMPI PUSH1 0x0 PUSH2 0x1732 DUP3 DUP3 PUSH2 0x173B JUMP JUMPDEST POP PUSH1 0x1 ADD PUSH2 0x171E JUMP JUMPDEST POP DUP1 SLOAD PUSH2 0x1747 SWAP1 PUSH2 0x2195 JUMP JUMPDEST PUSH1 0x0 DUP3 SSTORE DUP1 PUSH1 0x1F LT PUSH2 0x1757 JUMPI POP POP JUMP JUMPDEST PUSH1 0x1F ADD PUSH1 0x20 SWAP1 DIV SWAP1 PUSH1 0x0 MSTORE PUSH1 0x20 PUSH1 0x0 KECCAK256 SWAP1 DUP2 ADD SWAP1 PUSH2 0x1775 SWAP2 SWAP1 PUSH2 0x1778 JUMP JUMPDEST POP JUMP JUMPDEST JUMPDEST DUP1 DUP3 GT ISZERO PUSH2 0x171A JUMPI PUSH1 0x0 DUP2 SSTORE PUSH1 0x1 ADD PUSH2 0x1779 JUMP JUMPDEST PUSH4 0x4E487B71 PUSH1 0xE0 SHL PUSH1 0x0 MSTORE PUSH1 0x41 PUSH1 0x4 MSTORE PUSH1 0x24 PUSH1 0x0 REVERT JUMPDEST PUSH1 0x40 MLOAD PUSH1 0xC0 DUP2 ADD PUSH8 0xFFFFFFFFFFFFFFFF DUP2 GT DUP3 DUP3 LT OR ISZERO PUSH2 0x17C6 JUMPI PUSH2 0x17C6 PUSH2 0x178D JUMP JUMPDEST PUSH1 0x40 MSTORE SWAP1 JUMP JUMPDEST PUSH1 0x40 MLOAD PUSH1 0xA0 DUP2 ADD PUSH8 0xFFFFFFFFFFFFFFFF DUP2 GT DUP3 DUP3 LT OR ISZERO PUSH2 0x17C6 JUMPI PUSH2 0x17C6 PUSH2 0x178D JUMP JUMPDEST PUSH1 0x40 MLOAD PUSH1 0x1F DUP3 ADD PUSH1 0x1F NOT AND DUP2 ADD PUSH8 0xFFFFFFFFFFFFFFFF DUP2 GT DUP3 DUP3 LT OR ISZERO PUSH2 0x1818 JUMPI PUSH2 0x1818 PUSH2 0x178D JUMP JUMPDEST PUSH1 0x40 MSTORE SWAP2 SWAP1 POP JUMP JUMPDEST PUSH1 0x0 DUP3 PUSH1 0x1F DUP4 ADD SLT PUSH2 0x1831 JUMPI PUSH1 0x0 DUP1 REVERT JUMPDEST DUP2 CALLDATALOAD PUSH8 0xFFFFFFFFFFFFFFFF DUP2 GT ISZERO PUSH2 0x184B JUMPI PUSH2 0x184B PUSH2 0x178D JUMP JUMPDEST PUSH2 0x185E PUSH1 0x1F DUP3 ADD PUSH1 0x1F NOT AND PUSH1 0x20 ADD PUSH2 0x17EF JUMP JUMPDEST DUP2 DUP2 MSTORE DUP5 PUSH1 0x20 DUP4 DUP7 ADD ADD GT ISZERO PUSH2 0x1873 JUMPI PUSH1 0x0 DUP1 REVERT JUMPDEST DUP2 PUSH1 0x20 DUP6 ADD PUSH1 0x20 DUP4 ADD CALLDATACOPY PUSH1 0x0 SWAP2 DUP2 ADD PUSH1 0x20 ADD SWAP2 SWAP1 SWAP2 MSTORE SWAP4 SWAP3 POP POP POP JUMP JUMPDEST PUSH1 0x0 PUSH1 0x20 DUP3 DUP5 SUB SLT ISZERO PUSH2 0x18A2 JUMPI PUSH1 0x0 DUP1 REVERT JUMPDEST DUP2 CALLDATALOAD PUSH8 0xFFFFFFFFFFFFFFFF DUP2 GT ISZERO PUSH2 0x18B9 JUMPI PUSH1 0x0 DUP1 REVERT JUMPDEST PUSH2 0x18C5 DUP5 DUP3 DUP6 ADD PUSH2 0x1820 JUMP JUMPDEST SWAP5 SWAP4 POP POP POP POP JUMP JUMPDEST PUSH1 0xA0 DUP2 ADD PUSH2 0x1910 DUP3 DUP5 DUP1 MLOAD ISZERO ISZERO DUP3 MSTORE PUSH1 0x20 DUP2 ADD MLOAD ISZERO ISZERO PUSH1 0x20 DUP4 ADD MSTORE PUSH1 0x40 DUP2 ADD MLOAD ISZERO ISZERO PUSH1 0x40 DUP4 ADD MSTORE PUSH1 0x60 DUP2 ADD MLOAD ISZERO ISZERO PUSH1 0x60 DUP4 ADD MSTORE PUSH1 0x80 DUP2 ADD MLOAD ISZERO ISZERO PUSH1 0x80 DUP4 ADD MSTORE POP POP JUMP JUMPDEST SWAP3 SWAP2 POP POP JUMP JUMPDEST PUSH1 0x0 PUSH1 0x20 DUP3 DUP5 SUB SLT ISZERO PUSH2 0x1928 JUMPI PUSH1 0x0 DUP1 REVERT JUMPDEST DUP2 CALLDATALOAD PUSH20 0xFFFFFFFFFFFFFFFFFFFFFFFFFFFFFFFFFFFFFFFF DUP2 AND DUP2 EQ PUSH2 0x194C JUMPI PUSH1 0x0 DUP1 REVERT JUMPDEST SWAP4 SWAP3 POP POP POP JUMP JUMPDEST PUSH1 0x0 JUMPDEST DUP4 DUP2 LT ISZERO PUSH2 0x196E JUMPI DUP2 DUP2 ADD MLOAD DUP4 DUP3 ADD MSTORE PUSH1 0x20 ADD PUSH2 0x1956 JUMP JUMPDEST POP POP PUSH1 0x0 SWAP2 ADD MSTORE JUMP JUMPDEST PUSH1 0x0 DUP2 MLOAD DUP1 DUP5 MSTORE PUSH2 0x198F DUP2 PUSH1 0x20 DUP7 ADD PUSH1 0x20 DUP7 ADD PUSH2 0x1953 JUMP JUMPDEST PUSH1 0x1F ADD PUSH1 0x1F NOT AND SWAP3 SWAP1 SWAP3 ADD PUSH1 0x20 ADD SWAP3 SWAP2 POP POP JUMP JUMPDEST PUSH1 0x0 DUP2 MLOAD PUSH1 0xC0 DUP5 MSTORE PUSH2 0x19B8 PUSH1 0xC0 DUP6 ADD DUP3 PUSH2 0x1977 JUMP JUMPDEST SWAP1 POP PUSH1 0x20 DUP1 DUP5 ADD MLOAD DUP6 DUP4 SUB DUP3 DUP8 ADD MSTORE PUSH2 0x19D1 DUP4 DUP3 PUSH2 0x1977 JUMP JUMPDEST SWAP3 POP POP PUSH1 0x40 DUP5 ADD MLOAD DUP6 DUP4 SUB PUSH1 0x40 DUP8 ADD MSTORE PUSH2 0x19EB DUP4 DUP3 PUSH2 0x1977 JUMP JUMPDEST SWAP3 POP POP PUSH1 0x60 DUP5 ADD MLOAD DUP6 DUP4 SUB PUSH1 0x60 DUP8 ADD MSTORE PUSH2 0x1A05 DUP4 DUP3 PUSH2 0x1977 JUMP JUMPDEST SWAP3 POP POP PUSH1 0x80 DUP5 ADD MLOAD DUP6 DUP4 SUB PUSH1 0x80 DUP8 ADD MSTORE DUP3 DUP2 MLOAD DUP1 DUP6 MSTORE DUP4 DUP6 ADD SWAP2 POP DUP4 DUP2 PUSH1 0x5 SHL DUP7 ADD ADD DUP5 DUP5 ADD SWAP4 POP PUSH1 0x0 JUMPDEST DUP3 DUP2 LT ISZERO PUSH2 0x1A5E JUMPI PUSH1 0x1F NOT DUP8 DUP4 SUB ADD DUP5 MSTORE PUSH2 0x1A4C DUP3 DUP7 MLOAD PUSH2 0x1977 JUMP JUMPDEST SWAP5 DUP7 ADD SWAP5 SWAP4 DUP7 ADD SWAP4 SWAP2 POP PUSH1 0x1 ADD PUSH2 0x1A30 JUMP JUMPDEST POP PUSH1 0xA0 DUP9 ADD MLOAD SWAP6 POP DUP9 DUP2 SUB PUSH1 0xA0 DUP11 ADD MSTORE PUSH2 0x1A78 DUP2 DUP8 PUSH2 0x1977 JUMP JUMPDEST SWAP10 SWAP9 POP POP POP POP POP POP POP POP POP JUMP JUMPDEST PUSH1 0x0 DUP2 MLOAD PUSH1 0xA0 DUP5 MSTORE PUSH2 0x1A9A PUSH1 0xA0 DUP6 ADD DUP3 PUSH2 0x1977 JUMP JUMPDEST SWAP1 POP PUSH1 0x20 DUP4 ADD MLOAD DUP5 DUP3 SUB PUSH1 0x20 DUP7 ADD MSTORE PUSH2 0x1AB3 DUP3 DUP3 PUSH2 0x1977 JUMP JUMPDEST SWAP2 POP POP PUSH1 0x40 DUP4 ADD MLOAD DUP5 DUP3 SUB PUSH1 0x40 DUP7 ADD MSTORE PUSH2 0x1ACD DUP3 DUP3 PUSH2 0x1977 JUMP JUMPDEST SWAP2 POP POP PUSH1 0x60 DUP4 ADD MLOAD DUP5 DUP3 SUB PUSH1 0x60 DUP7 ADD MSTORE PUSH2 0x1AE7 DUP3 DUP3 PUSH2 0x1977 JUMP JUMPDEST SWAP2 POP POP PUSH1 0x80 DUP4 ADD MLOAD DUP5 DUP3 SUB PUSH1 0x80 DUP7 ADD MSTORE PUSH2 0x1B01 DUP3 DUP3 PUSH2 0x1977 JUMP JUMPDEST SWAP6 SWAP5 POP POP POP POP POP JUMP JUMPDEST PUSH1 0x0 PUSH2 0x100 DUP1 DUP4 MSTORE DUP7 MLOAD PUSH1 0xC0 DUP3 DUP6 ADD MSTORE PUSH2 0x1B28 PUSH2 0x1C0 DUP6 ADD DUP3 PUSH2 0x1977 JUMP JUMPDEST SWAP2 POP POP PUSH1 0x20 DUP8 ADD MLOAD PUSH1 0xFF NOT DUP1 DUP6 DUP5 SUB ADD PUSH2 0x120 DUP7 ADD MSTORE PUSH2 0x1B48 DUP4 DUP4 PUSH2 0x1977 JUMP JUMPDEST SWAP3 POP PUSH1 0x40 DUP10 ADD MLOAD SWAP2 POP DUP1 DUP6 DUP5 SUB ADD PUSH2 0x140 DUP7 ADD MSTORE PUSH2 0x1B66 DUP4 DUP4 PUSH2 0x1977 JUMP JUMPDEST SWAP3 POP PUSH1 0x60 DUP10 ADD MLOAD SWAP2 POP DUP1 DUP6 DUP5 SUB ADD PUSH2 0x160 DUP7 ADD MSTORE PUSH2 0x1B84 DUP4 DUP4 PUSH2 0x1977 JUMP JUMPDEST SWAP3 POP PUSH1 0x80 DUP10 ADD MLOAD SWAP2 POP DUP1 DUP6 DUP5 SUB ADD PUSH2 0x180 DUP7 ADD MSTORE PUSH2 0x1BA2 DUP4 DUP4 PUSH2 0x1977 JUMP JUMPDEST SWAP3 POP PUSH1 0xA0 DUP10 ADD MLOAD SWAP2 POP DUP1 DUP6 DUP5 SUB ADD PUSH2 0x1A0 DUP7 ADD MSTORE POP PUSH2 0x1BC1 DUP3 DUP3 PUSH2 0x1977 JUMP JUMPDEST SWAP2 POP POP DUP3 DUP2 SUB PUSH1 0x20 DUP5 ADD MSTORE PUSH2 0x1BD6 DUP2 DUP8 PUSH2 0x19A3 JUMP JUMPDEST SWAP1 POP DUP3 DUP2 SUB PUSH1 0x40 DUP5 ADD MSTORE PUSH2 0x1BEA DUP2 DUP7 PUSH2 0x1A85 JUMP JUMPDEST SWAP2 POP POP PUSH2 0x1B01 PUSH1 0x60 DUP4 ADD DUP5 DUP1 MLOAD ISZERO ISZERO DUP3 MSTORE PUSH1 0x20 DUP2 ADD MLOAD ISZERO ISZERO PUSH1 0x20 DUP4 ADD MSTORE PUSH1 0x40 DUP2 ADD MLOAD ISZERO ISZERO PUSH1 0x40 DUP4 ADD MSTORE PUSH1 0x60 DUP2 ADD MLOAD ISZERO ISZERO PUSH1 0x60 DUP4 ADD MSTORE PUSH1 0x80 DUP2 ADD MLOAD ISZERO ISZERO PUSH1 0x80 DUP4 ADD MSTORE POP POP JUMP JUMPDEST PUSH1 0x0 DUP3 PUSH1 0x1F DUP4 ADD SLT PUSH2 0x1C40 JUMPI PUSH1 0x0 DUP1 REVERT JUMPDEST DUP2 CALLDATALOAD PUSH1 0x20 PUSH8 0xFFFFFFFFFFFFFFFF DUP1 DUP4 GT ISZERO PUSH2 0x1C5D JUMPI PUSH2 0x1C5D PUSH2 0x178D JUMP JUMPDEST DUP3 PUSH1 0x5 SHL PUSH2 0x1C6C DUP4 DUP3 ADD PUSH2 0x17EF JUMP JUMPDEST SWAP4 DUP5 MSTORE DUP6 DUP2 ADD DUP4 ADD SWAP4 DUP4 DUP2 ADD SWAP1 DUP9 DUP7 GT ISZERO PUSH2 0x1C86 JUMPI PUSH1 0x0 DUP1 REVERT JUMPDEST DUP5 DUP9 ADD SWAP3 POP JUMPDEST DUP6 DUP4 LT ISZERO PUSH2 0x1CC2 JUMPI DUP3 CALLDATALOAD DUP5 DUP2 GT ISZERO PUSH2 0x1CA4 JUMPI PUSH1 0x0 DUP1 DUP2 REVERT JUMPDEST PUSH2 0x1CB2 DUP11 DUP8 DUP4 DUP13 ADD ADD PUSH2 0x1820 JUMP JUMPDEST DUP4 MSTORE POP SWAP2 DUP5 ADD SWAP2 SWAP1 DUP5 ADD SWAP1 PUSH2 0x1C8C JUMP JUMPDEST SWAP9 SWAP8 POP POP POP POP POP POP POP POP JUMP JUMPDEST PUSH1 0x0 PUSH1 0xC0 DUP3 DUP5 SUB SLT ISZERO PUSH2 0x1CE0 JUMPI PUSH1 0x0 DUP1 REVERT JUMPDEST PUSH2 0x1CE8 PUSH2 0x17A3 JUMP JUMPDEST SWAP1 POP DUP2 CALLDATALOAD PUSH8 0xFFFFFFFFFFFFFFFF DUP1 DUP3 GT ISZERO PUSH2 0x1D02 JUMPI PUSH1 0x0 DUP1 REVERT JUMPDEST PUSH2 0x1D0E DUP6 DUP4 DUP7 ADD PUSH2 0x1820 JUMP JUMPDEST DUP4 MSTORE PUSH1 0x20 DUP5 ADD CALLDATALOAD SWAP2 POP DUP1 DUP3 GT ISZERO PUSH2 0x1D24 JUMPI PUSH1 0x0 DUP1 REVERT JUMPDEST PUSH2 0x1D30 DUP6 DUP4 DUP7 ADD PUSH2 0x1820 JUMP JUMPDEST PUSH1 0x20 DUP5 ADD MSTORE PUSH1 0x40 DUP5 ADD CALLDATALOAD SWAP2 POP DUP1 DUP3 GT ISZERO PUSH2 0x1D49 JUMPI PUSH1 0x0 DUP1 REVERT JUMPDEST PUSH2 0x1D55 DUP6 DUP4 DUP7 ADD PUSH2 0x1820 JUMP JUMPDEST PUSH1 0x40 DUP5 ADD MSTORE PUSH1 0x60 DUP5 ADD CALLDATALOAD SWAP2 POP DUP1 DUP3 GT ISZERO PUSH2 0x1D6E JUMPI PUSH1 0x0 DUP1 REVERT JUMPDEST PUSH2 0x1D7A DUP6 DUP4 DUP7 ADD PUSH2 0x1820 JUMP JUMPDEST PUSH1 0x60 DUP5 ADD MSTORE PUSH1 0x80 DUP5 ADD CALLDATALOAD SWAP2 POP DUP1 DUP3 GT ISZERO PUSH2 0x1D93 JUMPI PUSH1 0x0 DUP1 REVERT JUMPDEST PUSH2 0x1D9F DUP6 DUP4 DUP7 ADD PUSH2 0x1C2F JUMP JUMPDEST PUSH1 0x80 DUP5 ADD MSTORE PUSH1 0xA0 DUP5 ADD CALLDATALOAD SWAP2 POP DUP1 DUP3 GT ISZERO PUSH2 0x1DB8 JUMPI PUSH1 0x0 DUP1 REVERT JUMPDEST POP PUSH2 0x1DC5 DUP5 DUP3 DUP6 ADD PUSH2 0x1820 JUMP JUMPDEST PUSH1 0xA0 DUP4 ADD MSTORE POP SWAP3 SWAP2 POP POP JUMP JUMPDEST PUSH1 0x0 PUSH1 0xA0 DUP3 DUP5 SUB SLT ISZERO PUSH2 0x1DE3 JUMPI PUSH1 0x0 DUP1 REVERT JUMPDEST PUSH2 0x1DEB PUSH2 0x17CC JUMP JUMPDEST SWAP1 POP DUP2 CALLDATALOAD PUSH8 0xFFFFFFFFFFFFFFFF DUP1 DUP3 GT ISZERO PUSH2 0x1E05 JUMPI PUSH1 0x0 DUP1 REVERT JUMPDEST PUSH2 0x1E11 DUP6 DUP4 DUP7 ADD PUSH2 0x1820 JUMP JUMPDEST DUP4 MSTORE PUSH1 0x20 DUP5 ADD CALLDATALOAD SWAP2 POP DUP1 DUP3 GT ISZERO PUSH2 0x1E27 JUMPI PUSH1 0x0 DUP1 REVERT JUMPDEST PUSH2 0x1E33 DUP6 DUP4 DUP7 ADD PUSH2 0x1820 JUMP JUMPDEST PUSH1 0x20 DUP5 ADD MSTORE PUSH1 0x40 DUP5 ADD CALLDATALOAD SWAP2 POP DUP1 DUP3 GT ISZERO PUSH2 0x1E4C JUMPI PUSH1 0x0 DUP1 REVERT JUMPDEST PUSH2 0x1E58 DUP6 DUP4 DUP7 ADD PUSH2 0x1820 JUMP JUMPDEST PUSH1 0x40 DUP5 ADD MSTORE PUSH1 0x60 DUP5 ADD CALLDATALOAD SWAP2 POP DUP1 DUP3 GT ISZERO PUSH2 0x1E71 JUMPI PUSH1 0x0 DUP1 REVERT JUMPDEST PUSH2 0x1E7D DUP6 DUP4 DUP7 ADD PUSH2 0x1820 JUMP JUMPDEST PUSH1 0x60 DUP5 ADD MSTORE PUSH1 0x80 DUP5 ADD CALLDATALOAD SWAP2 POP DUP1 DUP3 GT ISZERO PUSH2 0x1E96 JUMPI PUSH1 0x0 DUP1 REVERT JUMPDEST POP PUSH2 0x1EA3 DUP5 DUP3 DUP6 ADD PUSH2 0x1820 JUMP JUMPDEST PUSH1 0x80 DUP4 ADD MSTORE POP SWAP3 SWAP2 POP POP JUMP JUMPDEST DUP1 CALLDATALOAD DUP1 ISZERO ISZERO DUP2 EQ PUSH2 0x1EBF JUMPI PUSH1 0x0 DUP1 REVERT JUMPDEST SWAP2 SWAP1 POP JUMP JUMPDEST PUSH1 0x0 PUSH1 0xA0 DUP3 DUP5 SUB SLT ISZERO PUSH2 0x1ED6 JUMPI PUSH1 0x0 DUP1 REVERT JUMPDEST PUSH2 0x1EDE PUSH2 0x17CC JUMP JUMPDEST SWAP1 POP PUSH2 0x1EE9 DUP3 PUSH2 0x1EAF JUMP JUMPDEST DUP2 MSTORE PUSH2 0x1EF7 PUSH1 0x20 DUP4 ADD PUSH2 0x1EAF JUMP JUMPDEST PUSH1 0x20 DUP3 ADD MSTORE PUSH2 0x1F08 PUSH1 0x40 DUP4 ADD PUSH2 0x1EAF JUMP JUMPDEST PUSH1 0x40 DUP3 ADD MSTORE PUSH2 0x1F19 PUSH1 0x60 DUP4 ADD PUSH2 0x1EAF JUMP JUMPDEST PUSH1 0x60 DUP3 ADD MSTORE PUSH2 0x1F2A PUSH1 0x80 DUP4 ADD PUSH2 0x1EAF JUMP JUMPDEST PUSH1 0x80 DUP3 ADD MSTORE SWAP3 SWAP2 POP POP JUMP JUMPDEST PUSH1 0x0 DUP1 PUSH1 0x0 DUP1 PUSH1 0x0 PUSH2 0x120 DUP7 DUP9 SUB SLT ISZERO PUSH2 0x1F4E JUMPI PUSH1 0x0 DUP1 REVERT JUMPDEST DUP6 CALLDATALOAD PUSH8 0xFFFFFFFFFFFFFFFF DUP1 DUP3 GT ISZERO PUSH2 0x1F66 JUMPI PUSH1 0x0 DUP1 REVERT JUMPDEST PUSH2 0x1F72 DUP10 DUP4 DUP11 ADD PUSH2 0x1820 JUMP JUMPDEST SWAP7 POP PUSH1 0x20 DUP9 ADD CALLDATALOAD SWAP2 POP DUP1 DUP3 GT ISZERO PUSH2 0x1F88 JUMPI PUSH1 0x0 DUP1 REVERT JUMPDEST SWAP1 DUP8 ADD SWAP1 PUSH1 0xC0 DUP3 DUP11 SUB SLT ISZERO PUSH2 0x1F9C JUMPI PUSH1 0x0 DUP1 REVERT JUMPDEST PUSH2 0x1FA4 PUSH2 0x17A3 JUMP JUMPDEST DUP3 CALLDATALOAD DUP3 DUP2 GT ISZERO PUSH2 0x1FB3 JUMPI PUSH1 0x0 DUP1 REVERT JUMPDEST PUSH2 0x1FBF DUP12 DUP3 DUP7 ADD PUSH2 0x1820 JUMP JUMPDEST DUP3 MSTORE POP PUSH1 0x20 DUP4 ADD CALLDATALOAD DUP3 DUP2 GT ISZERO PUSH2 0x1FD4 JUMPI PUSH1 0x0 DUP1 REVERT JUMPDEST PUSH2 0x1FE0 DUP12 DUP3 DUP7 ADD PUSH2 0x1820 JUMP JUMPDEST PUSH1 0x20 DUP4 ADD MSTORE POP PUSH1 0x40 DUP4 ADD CALLDATALOAD DUP3 DUP2 GT ISZERO PUSH2 0x1FF8 JUMPI PUSH1 0x0 DUP1 REVERT JUMPDEST PUSH2 0x2004 DUP12 DUP3 DUP7 ADD PUSH2 0x1820 JUMP JUMPDEST PUSH1 0x40 DUP4 ADD MSTORE POP PUSH1 0x60 DUP4 ADD CALLDATALOAD DUP3 DUP2 GT ISZERO PUSH2 0x201C JUMPI PUSH1 0x0 DUP1 REVERT JUMPDEST PUSH2 0x2028 DUP12 DUP3 DUP7 ADD PUSH2 0x1820 JUMP JUMPDEST PUSH1 0x60 DUP4 ADD MSTORE POP PUSH1 0x80 DUP4 ADD CALLDATALOAD DUP3 DUP2 GT ISZERO PUSH2 0x2040 JUMPI PUSH1 0x0 DUP1 REVERT JUMPDEST PUSH2 0x204C DUP12 DUP3 DUP7 ADD PUSH2 0x1820 JUMP JUMPDEST PUSH1 0x80 DUP4 ADD MSTORE POP PUSH1 0xA0 DUP4 ADD CALLDATALOAD DUP3 DUP2 GT ISZERO PUSH2 0x2064 JUMPI PUSH1 0x0 DUP1 REVERT JUMPDEST PUSH2 0x2070 DUP12 DUP3 DUP7 ADD PUSH2 0x1820 JUMP JUMPDEST PUSH1 0xA0 DUP4 ADD MSTORE POP SWAP6 POP PUSH1 0x40 DUP9 ADD CALLDATALOAD SWAP2 POP DUP1 DUP3 GT ISZERO PUSH2 0x208C JUMPI PUSH1 0x0 DUP1 REVERT JUMPDEST PUSH2 0x2098 DUP10 DUP4 DUP11 ADD PUSH2 0x1CCE JUMP JUMPDEST SWAP5 POP PUSH1 0x60 DUP9 ADD CALLDATALOAD SWAP2 POP DUP1 DUP3 GT ISZERO PUSH2 0x20AE JUMPI PUSH1 0x0 DUP1 REVERT JUMPDEST POP PUSH2 0x20BB DUP9 DUP3 DUP10 ADD PUSH2 0x1DD1 JUMP JUMPDEST SWAP3 POP POP PUSH2 0x20CB DUP8 PUSH1 0x80 DUP9 ADD PUSH2 0x1EC4 JUMP JUMPDEST SWAP1 POP SWAP3 SWAP6 POP SWAP3 SWAP6 SWAP1 SWAP4 POP JUMP JUMPDEST PUSH1 0x0 DUP1 PUSH1 0x0 DUP1 PUSH1 0x0 DUP1 PUSH1 0xC0 DUP8 DUP10 SUB SLT ISZERO PUSH2 0x20F0 JUMPI PUSH1 0x0 DUP1 REVERT JUMPDEST DUP7 CALLDATALOAD PUSH8 0xFFFFFFFFFFFFFFFF DUP2 GT ISZERO PUSH2 0x2107 JUMPI PUSH1 0x0 DUP1 REVERT JUMPDEST PUSH2 0x2113 DUP10 DUP3 DUP11 ADD PUSH2 0x1820 JUMP JUMPDEST SWAP7 POP POP PUSH2 0x2122 PUSH1 0x20 DUP9 ADD PUSH2 0x1EAF JUMP JUMPDEST SWAP5 POP PUSH2 0x2130 PUSH1 0x40 DUP9 ADD PUSH2 0x1EAF JUMP JUMPDEST SWAP4 POP PUSH2 0x213E PUSH1 0x60 DUP9 ADD PUSH2 0x1EAF JUMP JUMPDEST SWAP3 POP PUSH2 0x214C PUSH1 0x80 DUP9 ADD PUSH2 0x1EAF JUMP JUMPDEST SWAP2 POP PUSH2 0x215A PUSH1 0xA0 DUP9 ADD PUSH2 0x1EAF JUMP JUMPDEST SWAP1 POP SWAP3 SWAP6 POP SWAP3 SWAP6 POP SWAP3 SWAP6 JUMP JUMPDEST PUSH1 0x20 DUP2 MSTORE PUSH1 0x0 PUSH2 0x194C PUSH1 0x20 DUP4 ADD DUP5 PUSH2 0x1977 JUMP JUMPDEST PUSH1 0x0 DUP3 MLOAD PUSH2 0x218B DUP2 DUP5 PUSH1 0x20 DUP8 ADD PUSH2 0x1953 JUMP JUMPDEST SWAP2 SWAP1 SWAP2 ADD SWAP3 SWAP2 POP POP JUMP JUMPDEST PUSH1 0x1 DUP2 DUP2 SHR SWAP1 DUP3 AND DUP1 PUSH2 0x21A9 JUMPI PUSH1 0x7F DUP3 AND SWAP2 POP JUMPDEST PUSH1 0x20 DUP3 LT DUP2 SUB PUSH2 0x21C9 JUMPI PUSH4 0x4E487B71 PUSH1 0xE0 SHL PUSH1 0x0 MSTORE PUSH1 0x22 PUSH1 0x4 MSTORE PUSH1 0x24 PUSH1 0x0 REVERT JUMPDEST POP SWAP2 SWAP1 POP JUMP JUMPDEST PUSH1 0x1F DUP3 GT ISZERO PUSH2 0x221B JUMPI PUSH1 0x0 DUP2 PUSH1 0x0 MSTORE PUSH1 0x20 PUSH1 0x0 KECCAK256 PUSH1 0x1F DUP6 ADD PUSH1 0x5 SHR DUP2 ADD PUSH1 0x20 DUP7 LT ISZERO PUSH2 0x21F8 JUMPI POP DUP1 JUMPDEST PUSH1 0x1F DUP6 ADD PUSH1 0x5 SHR DUP3 ADD SWAP2 POP JUMPDEST DUP2 DUP2 LT ISZERO PUSH2 0x2217 JUMPI DUP3 DUP2 SSTORE PUSH1 0x1 ADD PUSH2 0x2204 JUMP JUMPDEST POP POP POP JUMPDEST POP POP POP JUMP JUMPDEST DUP2 MLOAD PUSH8 0xFFFFFFFFFFFFFFFF DUP2 GT ISZERO PUSH2 0x223A JUMPI PUSH2 0x223A PUSH2 0x178D JUMP JUMPDEST PUSH2 0x224E DUP2 PUSH2 0x2248 DUP5 SLOAD PUSH2 0x2195 JUMP JUMPDEST DUP5 PUSH2 0x21CF JUMP JUMPDEST PUSH1 0x20 DUP1 PUSH1 0x1F DUP4 GT PUSH1 0x1 DUP2 EQ PUSH2 0x2283 JUMPI PUSH1 0x0 DUP5 ISZERO PUSH2 0x226B JUMPI POP DUP6 DUP4 ADD MLOAD JUMPDEST PUSH1 0x0 NOT PUSH1 0x3 DUP7 SWAP1 SHL SHR NOT AND PUSH1 0x1 DUP6 SWAP1 SHL OR DUP6 SSTORE PUSH2 0x2217 JUMP JUMPDEST PUSH1 0x0 DUP6 DUP2 MSTORE PUSH1 0x20 DUP2 KECCAK256 PUSH1 0x1F NOT DUP7 AND SWAP2 JUMPDEST DUP3 DUP2 LT ISZERO PUSH2 0x22B2 JUMPI DUP9 DUP7 ADD MLOAD DUP3 SSTORE SWAP5 DUP5 ADD SWAP5 PUSH1 0x1 SWAP1 SWAP2 ADD SWAP1 DUP5 ADD PUSH2 0x2293 JUMP JUMPDEST POP DUP6 DUP3 LT ISZERO PUSH2 0x22D0 JUMPI DUP8 DUP6 ADD MLOAD PUSH1 0x0 NOT PUSH1 0x3 DUP9 SWAP1 SHL PUSH1 0xF8 AND SHR NOT AND DUP2 SSTORE JUMPDEST POP POP POP POP POP PUSH1 0x1 SWAP1 DUP2 SHL ADD SWAP1 SSTORE POP JUMP INVALID LOG2 PUSH5 0x6970667358 0x22 SLT KECCAK256 REVERT 0xBF PUSH25 0x52A39D4AFFCBB2E53E278AA7A02ACE9CDFDC348B4937C0D5B0 PUSH0 SDIV 0xA9 0xF6 PUSH5 0x736F6C6343 STOP ADDMOD XOR STOP CALLER "
        },
        "methodIdentifiers": {
          "createUser(string,(string,string,string,string,string,string),(string,string,string,string,string[],string),(string,string,string,string,string),(bool,bool,bool,bool,bool))": "bb6228b0",
          "editUser(string,(string,string,string,string,string,string),(string,string,string,string,string[],string),(string,string,string,string,string),(bool,bool,bool,bool,bool))": "f86a29c7",
          "getUserByAddress(address)": "69c212f6",
          "getUserByUsername(string)": "9f42af63",
          "getUsernameByAddress(address)": "ed1a998d",
          "getVisibility(string)": "320ba8f7",
          "setVisibility(string,bool,bool,bool,bool,bool)": "d1577cac"
        }
      }
    }
  }
}